:020000040000FA
:0400000010EF00F00D
:0800080083EF02F0000000008C
:0E00100000000000000000008BEF02F0100066
:10002000F86AD09EEA6AE96AC150C00B0F09C16E36
:10003000070EB46EB450A19C700ED36EB896190E14
:10004000AF6E260EAC6E900EAB6E730ED36E1E0EA0
:10005000476E3DD8466A4650020824E3110E9EA81A
:10006000FED7AD6EC80E476E32D89EAA19D09EAA92
:10007000FED7AE50620814E19EAA12D09EAAFED707
:10008000AE504C080DE1476A475012D8472A006E1F
:1000900000509EA8FED7AD6E0C0E475CF5E130D83F
:0800A000462AD9D72DDA03002E
:1000B000F76AC00FF66E000EF7220900F550120025
:1000C000426F6F746C6F616465720D0A0000EA6ABA
:1000D000470EE96EEF500DE0020E016E006A002E31
:1000E000FED7012EFBD7970E006E002EFED7EF2E07
:0400F000F3D7000C36
:1001000042D8000C806B816B8151010829E37FC0CC
:1001100003F07EC0E9FF7FC0EAFFEF5040080EE227
:100120008051100DF3CF82F07EC0E9FF7FC0EAFF5F
:10013000EF508225BF0F0A0F806F0CD08051100D39
:10014000F3CF82F07EC0E9FF7FC0EAFFEF50822547
:10015000D00F806F8151812B7E2AD8B47F2AD4D7CB
:1001600080C001F0000CF250036EF29EA68EA684B1
:100170000F01550EA76EAA0EA76EA68200000350AF
:10018000F2120001000C47924C6A4D6A47B236D118
:10019000056AABB202D0ABA402D0AB98AB88036ABD
:1001A0000550060FE96E000E0320EA6E9EAAFED7E8
:1001B000AECFEFFF0550052A036A060FE96E000E69
:1001C0000320EA6EEF500D0803E005504008E1E21D
:1001D000130E9EA8FED7AD6E478006503A08D8A4ED
:1001E00002D17F6A070E7E6E8DDF01C058F07F6AF4
:1001F000090E7E6E87DF01C079F07F6A0B0E7E6E7E
:1002000081DF79C04BF001C04AF07F6A0D0E7E6E2F
:1002100079DF01C049F04CC050F04DC051F04AC0E8
:100220004EF04BC04FF0492C02D04782DCD0486AD8
:10023000010E576E030E055C575C11E2036A5750BE
:10024000060F796E000E03207A6E7AC07FF079C0B7
:100250007EF058DF01504826020E5726EBD7FF0EDE
:10026000D8804854010F486E030E055C036A060FE0
:100270007A6E000E03207B6E7BC07FF07AC07EF02A
:1002800041DF0150485C02E04790ADD04952D8A40C
:1002900099D051520FE150520DE14F5004080AE33A
:1002A00003E14E50FE0806E34790150E9EA8FED7C8
:1002B000AD6E87D0090E576E566A030E055C575C0B
:1002C00020E25650562A036A590F016E000E03228F
:1002D00001C07AF003C07BF0036A5750060F7C6EB2
:1002E000000E03207D6E7DC07FF07CC07EF00ADFB3
:1002F0007BC0EAFF7AC0E9FF01C0EFFF020E57267C
:10030000DCD752504E5C09E153504F5C06E154502B
:10031000505C03E15550515C1AE04E50010B006EE9
:10032000016A026A036A005206E1015204E10252C4
:1003300002E103520CE0010E4E24526E000E4F20DB
:10034000536E000E5020546E000E5120556ED08C0E
:10035000A69C50C0F8FF4FC0F7FF4EC0F6FFF65006
:100360003F0B006EC00EF6160A00EA6A590EE96EDF
:1003700058C001F058C002F0400E0066022602503C
:100380003F0FC00B026EF650006607D0010F3F0B07
:1003900004E1A6880900E7DE0A00006607D0EECF78
:1003A000F5FF015204E00F00010603D000060B0028
:1003B0000C003F0EF6143F0AD8B4D5DE022EE3D768
:1003C000F86A11D0495004080EE17F6A0F0E7E6E64
:1003D00099DE01C079F07F6A110E7E6E93DE79C0DE
:1003E0004DF001C04CF047A004D0060E9EA8FED7E9
:1003F000AD6E110E9EA8FED7AD6EC8D6060E9EA895
:10040000FED7AD6E110E9EA8FED7AD6EFF00000C9C
:04050000FFD7000C15
:020000040030CA
:0E00000000880E1E008581000FC00FE00F402B
:00000001FF
;PIC18F4620
