:0400000096EF57F030
:08000800046ED8CF05F0E0CF33
:1000100006F00001E9CF0CF0EACF07F0E1CF08F0DD
:10002000E2CF09F0D9CF0AF0DACF0BF0F3CF12F01C
:10003000F4CF13F0FACF14F0F5CF15F0F6CF16F099
:10004000F7CF17F000C00EF001C00FF002C010F0A3
:1000500003C011F0F2AA30EF00F0F2B49AEF00F012
:100060000EC000F00FC001F010C002F011C003F08C
:100070000CC0E9FF07C0EAFF078E08C0E1FF09C016
:10008000E2FF0AC0D9FF0BC0DAFF12C0F3FF13C0B2
:10009000F4FF14C0FAFF15C0F5FF16C0F6FF17C035
:1000A000F7FF045006C0E0FF05C0D8FF1000F76A54
:1000B000BE0FF66E000EF7220900F55012006275B1
:1000C00074746F6E30300000F76AD80FF66E000E51
:1000D000F7220900F5501200627574746F6E3031AA
:1000E0000000F76AF20FF66E000EF7220900F550D5
:1000F0001200627574746F6E30320000F76A0C0F74
:10010000F66E010EF7220900F55012006275747444
:100110006F6E30330000F2A40AD0010E01011B27DC
:10012000D8B01C2BD8B41D2BD8B41E2BF2940001D0
:100130009BEF00F0F0D730EF00F0485454502F31CF
:100140002E3120254C552000417574686F72697AF4
:100150006174696F6E205265717569726564000023
:100160004E6F7420466F756E6400536572766572CB
:10017000204572726F7200005757572D4175746891
:10018000656E7469636174653A20426173696320C6
:100190007265616C6D3D22417574686F72697A6138
:1001A00074696F6E205265717569726564220D0AFB
:1001B0000000436F6E74656E742D547970653A203B
:1001C00000004C6173742D4D6F6469666965643A13
:1001D000205475652C203135204E6F762031393909
:1001E000342031323A34353A323620474D540D0AF4
:1001F000000043616368652D436F6E74726F6C3AE3
:10020000206E6F2D63616368650D0A00436F6E6E2B
:10021000656374696F6E3A20636C6F73650D0A00D5
:100220006572726F723530302E68746D00003C68F4
:10023000746D6C3E3C626F64793E3C68313E353093
:1002400030204572726F723C2F68313E3C68723EBE
:100250003C703E496E7465726E616C207365727697
:100260006572206572726F722E3C2F703E3C2F6259
:100270006F64793E3C2F68746D6C3E00696E6465F6
:10028000782E68746D006572726F723430342E6827
:10029000746D00006572726F723530302E68746D47
:1002A00000006572726F723530302E68746D000018
:1002B0006572726F723530302E68746D00004C6A52
:1002C000080E4D6EDC0E4E6E180E4F6E7C0E506E8C
:1002D000060E516E0A0E1F6E020E206E0A0E216E61
:1002E000C80E226E0A0E276E020E286E0A0E296EA6
:1002F000010E2A6E236824682568266A36EF58F0B6
:10030000D76AD66AF194F294F28A870ED56E38EFE6
:1003100058F006010D6B0D510E0844E3D890010111
:1003200016310601126F010115310601116F01012D
:1003300014310601106F0101133106010F6F010125
:100340001351010B006E016A026A036A000ED88025
:1003500000540601136F000E0154146F000E025476
:10036000156F000E0354166F1351010B006E016AD6
:10037000026A1651D00B036E00500F190101136F62
:100380000150060110190101146F025006011119E4
:100390000101156F0350060112190101166F0601C4
:1003A0000D2BB9D7010113C101F014C102F00001F6
:1003B000120016C1D2F515C1D1F514C1D0F513C183
:1003C000CFF50501CB530BE1CC5309E1CD5307E148
:1003D000CE5305E1CE6BCD6BCC6B010ECB6FCEC592
:1003E00016F1CDC515F1CCC514F1CBC513F1D36B06
:1003F000D3510F0805E300018CDF0501D32BF8D79B
:10040000CFC500F0D0C501F0D1C502F0D2C503F0D0
:1004100000011200C2CFC4F5C0CFC5F5D5CFC6F5D7
:10042000D6CFC8F5D7CFC7F5010EC26E3F0EC06E4E
:10043000880ED56E0501B56BBF6BBE6BBD6BBC6B1B
:10044000BB6BBA6B000165DF0501C36BC26B02C0F9
:10045000C1F501C0C0F5D76AD66AC2820400C2B233
:10046000FED7D6CFB8F5D7CFB9F5000152DF02C01D
:10047000B7F501C0B6F50501B851BC27B951BD2388
:10048000000EBE23BF23BF5308E1BE51790814E21A
:10049000FF0A03E1BD5111080FE200013ADF0150EC
:1004A0000501C01B0250C11B000133DF01500501D3
:1004B000C21B0250C31B37D0B851BA5D04E1B95119
:1004C000BB5D01E1C8D7B851BA5D006EB951BB59E7
:1004D000036E0050B625C96F0350B721CA6FCE6BAB
:1004E000CD6BCC6FC9C5CBF5000163DFB9C5BBF5DA
:1004F000B8C5BAF5D8900501C037C137C237C33780
:10050000000107DF02C0CAF501C0C9F505010150AD
:10051000800B006E036A0050031001E0C081B52B10
:1005200001E101D098D7C4C5C2FFC5C5C0FFC7C58A
:10053000D7FFC8C5D6FFC6C5D5FFC0C500F0C1C529
:1005400001F0C2C502F0C3C503F0000191EF0AF04B
:100550008A949E9606014D51A009C96E9EA6FED7AB
:100560009E96C9CF4FF64EC6C9FF9EA6FED79E9651
:10057000C9CF4FF68A8400011200050EEA6EB70E4D
:10058000E96EEF500DE00A0E016E006A002EFED7F4
:10059000012EFBD75F0E006E002EFED7EF2EF3D795
:1005A00012001E0E06014D6F200E4E6F0001D0DFAF
:1005B000010E0501B76F0001E0DF8A949E96C968BD
:1005C0009EA6FED79E96C9CFB6F58A84010E050178
:1005D000B76F0001D2DFCBEF03F08A949E9606013D
:1005E00053C6C9FF9EA6FED79E96C9CF54F6C96AC8
:1005F0009EA6FED79E96C9CF54F68A8454C601F0B3
:10060000000112008A949E96060158514009C96E55
:100610009EA6FED79E96C9CF5AF659C6C9FF9EA67A
:10062000FED79E96C9CF5AF68A84000112008A949A
:100630009E967A0EC96E9EA6FED79E96C9CF57F695
:1006400056C6C9FF9EA6FED79E96C9CF57F68A8486
:1006500012008A949E9606014D518009C96E9EA68D
:10066000FED79E96C9CF4FF64EC6C9FF9EA6FED7AF
:100670009E96C9CF4FF68A84000112001F0E060114
:100680004D6F030E4E6F000163DF060E06013A6FD9
:10069000370E396F010E3925E96E000E3A21EA6EE8
:1006A000EFCF4EF61F0E4D6F0001D3DF12008A947C
:1006B0009E960501C2C5C9FF9EA6FED79E96C9CFCC
:1006C000C3F5C96A9EA6FED79E96C9CFC3F5C96A6F
:1006D0009EA6FED79E96C9CFC3F58A84C3C501F0F6
:1006E00000011200020E0601386F140E376F000170
:1006F000C5DF140E0601586FB6C559F6000182DF3A
:10070000050E0501BA6FB70EB96FE96EBAC5EAFFFB
:10071000EFCF59F6160E0601586F000173DF050E74
:100720000501BA6FB70EB96F010EB925E96E000E5B
:10073000BA21EA6EEFCF59F6170E0601586F000185
:1007400061DF030E0601386F0A0E376F000196DF76
:100750000A0E0501C26F0001AADF01C0B9F5000E43
:10076000050101B0010E000AD8B402D00001F0D793
:100770000601386B376B000181DF12008A84939485
:100780009496949A94888A8693969E96200EC66E26
:10079000C78CC79E06D71D0E0601536F00011DDFD3
:1007A00001C0B5F50501B551080B006E036A005094
:1007B0000310D8B402D00001EDD7B551FF0A010BE8
:1007C000006E036A00500310D8B402D00001E2D7D3
:1007D00001011285266B256B080E0601586F596BB7
:1007E000000110DF090E0601586F596B00010ADF86
:1007F0000C0E0601586FD50E596F000103DF0D0E68
:100800000601586F110E596F0001FCDE0A0E060139
:10081000586FD50E596F0001F5DE0B0E0601586FAB
:10082000110E596F0001EEDE040E0601586FD60E50
:10083000596F0001E7DE050E0601586F110E596F62
:100840000001E0DE020E0601586FD60E596F00015E
:10085000D9DE030E0601586F110E596F0001D2DE6A
:100860000601566B0001E3DE020E0601386F376B9E
:10087000000104DF0601586B0D0E596F0001C2DE46
:10088000020E0601586F320E596F0001BBDE040ED6
:100890000601586F120E596F0001B4DE030E0601F7
:1008A000586F400E596F0001ADDE090E0601586FFA
:1008B0003F0E596F0001A6DE060E0601586F120E9C
:1008C000596F00019FDE070E0601586F0C0E596F1D
:1008D000000198DE0A0E0601586FEE0E596F0001F6
:1008E00091DE0B0E0601586F050E596F00018ADE6E
:1008F000030E0601386F040E376F0001BFDE040ED1
:100900000601586F4CC059F600017CDE050E060149
:10091000586F4DC059F6000175DE020E0601586F82
:100920004EC059F600016EDE030E0601586F4FC02F
:1009300059F6000167DE0601586B50C059F60001F8
:1009400061DE010E0601586F51C059F600015ADEF2
:10095000150E0601586F596B000154DE120E060188
:10096000536F00013ADE01C029F1100E0501B66F88
:10097000010EB86FB76B0001B5DE140E0501B66F3E
:10098000340EB86F720EB76F0001ACDE0501B66BA6
:10099000B86BB76B0001A6DE0601386B376B000140
:1009A0006DDE1F0E06014D6F040E4E6F000151DE0D
:1009B000A8EF0AF00501C051060801E23BD0C05182
:1009C000170DF350C26BC16F0C0EC125016E000EE6
:1009D000C221036E0150530FE96E000E0320EA6E30
:1009E000EC6AED52EF6AC051170DF350C26BC16F44
:1009F000530EC125E96E000EC221EA6EEE52EE5290
:100A0000EC6AED52EF6AED52EF6AED52EF6AC051B7
:100A1000170DF350C26BC16F0E0EC125016E000E93
:100A2000C221036E0150530FE96E000E0320EA6EDF
:100A3000040EEF6E000112000501B56BB5510608FA
:100A400007E3B5C5C0F50001B5DF0501B52BF6D745
:100A500001013C830001AAEF0AF0016603D002669F
:100A600002D007D0022A00C0EEFF012EFCD7022ED2
:100A7000FAD712000501F3510101A35D01E149D04C
:100A8000A351FE081EE0A3511C0DF350036A600F32
:100A9000016E010E032201C0F4F5050103C0F5F556
:100AA000010EF76FE00E03C0EAFF01C0E9FFF7C5D2
:100AB000E2FFE16E1C0E016EE6CFEEFF012EFCD7C9
:100AC0000101F3C5A3F10501F351FE0803E10101A2
:100AD00020D00501010EF56FE00EF46FF3511C0DEF
:100AE000F350036A600F016E010E032201C0F6F598
:100AF00003C0F7F5F5C5EAFFF4C5E9FF03C0E2FF5F
:100B000001C0E1FF1C0E016EE6CFEEFF012EFCD707
:100B1000010100011200020E0601536F00015DDDAC
:100B200001C044F6030E0601536F000156DD01C0FB
:100B300045F6060E0601476F420E466FE96E47C640
:100B4000EAFFEFCF59F6020E586F00015BDD060E8B
:100B50000601476F420E466F010E4625E96E000EF4
:100B60004721EA6EEFCF59F6030E586F00014ADDB8
:100B7000060144C601F045C602F0000112008A9445
:100B80009E967A0EC96E9EA6FED79E96C9CF5BF63C
:100B9000060159515A1113E057C6E9FF58C6EAFF3A
:100BA000EFCFC9FF572BD8B4582B5951D8B45A0797
:100BB00059079EA6FED79E96C9CF5BF6EAD78A84D0
:100BC000000112000601536B000107DD01C044F66D
:100BD000010E0601536F000100DD01C045F6060E4F
:100BE0000601476F420E466FE96E47C6EAFFEFCF38
:100BF00059F6586B000106DD060E0601476F420EDE
:100C0000466F010E4625E96E000E4721EA6EEFCFD2
:100C100059F6010E586F0001F5DC060144C601F0DB
:100C200045C602F0000112008A949E963A0EC96EE3
:100C300006015A6B596B5551561104E05551D8B401
:100C4000560755079EA6FED79E96C9CF5BF65A510A
:100C5000585D1EE303E15751595D1AE2C96A592BE9
:100C6000D8B45A2B555156110DE0552BD8B4562BEC
:100C70009EA6FED79E9655C6E9FF56C6EAFFC9CF87
:100C8000EFFF05D09EA6FED79E96C9CF5BF6DFD7B5
:100C90008A8459C601F05AC602F0000112008A94F3
:100CA0009E963A0EC96E9EA6FED79E96C9CF4DF669
:100CB000C96A9EA6FED79E96C9CF4DF68A840601C4
:100CC0004DC601F00001120006014C914C93423DCB
:100CD00012D0433D10D04C81020E536F00017DDCD9
:100CE0000601436B01C042F6030E536F000175DC31
:100CF00001C043F60601443D11D0453D0FD04C8361
:100D0000536B00016ADC0601456B01C044F6010E1D
:100D1000536F000162DC01C045F606014753D8A4B9
:100D20006FD046510108D8A06BD04CB30DD0536B97
:100D3000000153DC01C048F6010E0601536F0001AB
:100D40004CDC01C049F606014CB10ED0020E536FC7
:100D5000000143DC01C04AF6030E0601536F000197
:100D60003CDC01C04BF60601586B44C659F6000145
:100D700049DC010E0601586F45C659F6000142DCF8
:100D8000020E0601586F42C659F600013BDC030E05
:100D90000601586F43C659F6000134DC060147C608
:100DA00003F04651D8B447074607031009E0000195
:100DB00076DF01C04DF601C056F639DCEFD70601EB
:100DC0004CB30DD0586B48C659F600011BDC010E20
:100DD0000601586F49C659F6000114DC06014CB1F2
:100DE0000ED0020E586F4AC659F600010BDC030EF6
:100DF0000601586F4BC659F6000104DC0601A9D064
:100E00004CA116D0465142254A6F475143214B6FA2
:100E1000020E586F4AC659F6000102EC03F0030EA9
:100E20000601586F4BC659F6000102EC03F00601AB
:100E3000010E445D006E000E4559036E00504627BA
:100E4000035047231F0E536F0001EDEC02F001C069
:100E50004DF6000E060101BA010E000AF3E1100E74
:100E6000586F44C659F6000102EC03F0110E06015A
:100E7000586F45C659F6000102EC03F0140E060146
:100E8000586F42C659F6000102EC03F0150E060138
:100E9000586F43C659F6000102EC03F006014551B4
:100EA000110810E303E14451D5080CE34751100841
:100EB00009E2FF0A03E14651D50804E2D60E465F77
:100EC000110E475B120E586F46C659F6000102EC30
:100ED00003F0130E0601586F47C659F6000102ECE5
:100EE00003F01F0E06014D6F100E4E6F0001A8ECAF
:100EF00002F01F0E06014D6F200E4E6F000129EC0F
:100F000003F006014CA325D0462BD8B4472B4551FE
:100F1000110810E303E14451D5080CE347511008D0
:100F200009E2FF0A03E14651D50804E2D60E465F06
:100F3000110E475B586B46C659F6000102EC03F0F0
:100F4000010E0601586F47C659F6000102EC03F086
:100F50000601000112001F0E0601536F0001EDECA7
:100F600002F001C042F6000E060101BA010E000AAD
:100F700002E0000E01D0010E016E00011200060118
:100F80003F51010A000103E0010A3AE06AD006017C
:100F90003C51010A000103E0010A1AE030D03BC6CF
:100FA000EAFF3AC6E9FF3EC6E2FF3DC6E1FF41C6A1
:100FB00002F040C601F0015202E0022A02D00252C1
:100FC00006E0E6CFEEFF012EFCD7022EFAD717D0AF
:100FD00006013A3D03D03B3D01D007D03BC643F666
:100FE0003AC642F6000197DD06013EC658F63DC6F8
:100FF00057F641C65AF640C659F60001C0DD31D059
:1010000006013C51010A000103E0010A19E028D061
:1010100006013D3D03D03E3D01D007D03EC643F61C
:101020003DC642F60001CEDD06013BC656F63AC685
:1010300055F641C658F640C657F60001F5DD10D00A
:101040003BC643F63AC642F63EC645F63DC644F6B2
:1010500041C647F640C646F637DE7DDF0152FDE069
:1010600000D012000101A351FC5D01E163D0FC51ED
:10107000FE083DE0FC511C0DF3500601346B336F4C
:10108000600E3325E96E010E3421EA6EECCF36F6A0
:10109000ED52EFCF35F6270E355F000E365B0101BE
:1010A000FC511C0DF3500601386B376F1B0E3725B2
:1010B000016E000E3821036E0150600FE96E010EC3
:1010C0000320EA6EEFCF3CF6010E396F7C0E386FCD
:1010D00036C63BF635C63AF639C63EF63D6F010ECA
:1010E0003F6F416B270E406F000149DF0101A3C133
:1010F000FCF1010E0601346F7C0E336F270E0101E7
:10110000E05D0601356F000E0101E1590601366F01
:1011100034C63BF633C63AF6010E3C6F36C63EF691
:1011200035C63DF6FBC13FF6416B270E406F00010F
:1011300026DF01010001120095DF8DC1FAF18CC19B
:10114000F9F1E1C1E7F1E0C1E6F1E1C1E9F1E0C1A6
:10115000E8F1E3C1EBF1E2C1EAF1E3C1EDF1E2C193
:10116000ECF10101F7A702D0040E01D00D0EF66FCD
:10117000F80EF715F76FF799F79BF79DF79FF89122
:10118000F893F895F897F8899E919E939E979E996B
:10119000E1C189F1E0C188F1010E06010A6F800EFC
:1011A000096F016E0AC603F00B6F0AC60CF6000148
:1011B00089EC01F00CC6EAFF0BC6E9FF02C0ECFFA8
:1011C000ED5201C0EFFF010E06010A6F800E096F9C
:1011D000020E0925016E000E0A21036E01C00BF6F6
:1011E0000C6F000189EC01F00CC6EAFF0BC6E9FFA9
:1011F00002C0ECFFED5201C0EFFF01019D699C6947
:101200008F6B010E8E6F00011200170E0501BF6F6C
:10121000C80EBE6F010EC16FA40EC06FC1C5EAFF3C
:10122000E96E006A026A3C0E016E000116DC0501DF
:10123000B66BB56BB553D8A4B3D0B5C5F3F5000103
:1012400019DC0501B551060DF350C16BC06F010EDD
:10125000C025016E000EC121036E0150010FE96E21
:10126000010E0320EA6EEFCFBDF5B551060DF35028
:10127000C16BC06F020EC025016E000EC121036E4E
:101280000150010FE96E010E0320EA6EECCFB8F5B4
:10129000ED52EFCFB7F5B551060DF350C16BC06FEE
:1012A000040EC025016E000EC121036E0150010F16
:1012B000E96E010E0320EA6EECCFBAF5ED52EFCFE6
:1012C000B9F5BD51000A000101E027D0BFC5BCF54A
:1012D000BEC5BBF5270E0501B725C06F000EB821AE
:1012E000C16F010EC027000EC123B951C027BA51EA
:1012F000C123010EC025016E000EC121036E0150F5
:10130000BE270350BF23BF511E0805E2FF0AFBE1C1
:10131000BE51FC08F8E303D00001FFD70501BDC5AD
:10132000FBF1270EBB250101E06F000E0501BC217A
:101330000101E16F0501B7510101E0250501C06F11
:10134000B8510101E1210501C16F010EC025010164
:10135000E26F000E0501C1210101E36F0501B951E2
:101360000101E225E46F0501BA510101E321E56FB6
:101370000D0EF66FF797000175DE0501B551060DEC
:10138000F350C16BC06F010EC025E96E010EC12183
:10139000EA6EEFCFA2F10001CFDE0501B52B4AD7EF
:1013A0000001ABEF0AF0010112B90BD0128905015F
:1013B000BF6BBF5305E1010144690501BF2BF9D79C
:1013C0000101443D01D007D044C1C0F50001DAEC71
:1013D00004F001014469010E456F466B468946835E
:1013E000000112000101443D01D007D044C1C0F505
:1013F0000001DAEC04F001014469456B0001B5EF2E
:101400000AF00501C06BC05333E1C0C5F3F500011C
:101410003AEC05F00101F6510D0801E026D000017B
:1014200021DE0501BF510101A25D01E01ED0020EC7
:10143000A06F180E9F6F0501BC530EE1BEC58DF164
:10144000BDC58CF10101F787040EF66FBEC5FAF138
:10145000BDC5F9F105D00501FE0E016E0BD00101ED
:101460000501C0C501F006D001010501C02BCBD795
:10147000FE0E016E00016AEF0AF00501B56B036A0A
:10148000B551006EE8BE0306016E03BE05D00352DF
:101490003DE1015000083AE3036AB551110FE96ECE
:1014A000020E0320EA6EEF68036AB551100F016E59
:1014B000020E032201C0B6F503C0B7F5BB6BBA6BD1
:1014C000B96BB86BBC6BBE6B500EBD6F080EBF6FB7
:1014D000000197D7B7C5EAFFB6C5E9FF01C0EFFF26
:1014E000036A0501B551100FE96E020E0320EA6E82
:1014F000EF50FE0809E0036AB551110FE96E020EC4
:101500000320EA6E010EEF6EB52BB9D70001B6EFDE
:101510000AF00101076B4B8E12B117D000010AEFE0
:1015200002F003C0B8F502C0B7F501C0B6F500C0BF
:10153000B5F503C0CEF502C0CDF501C0CCF500C0B5
:10154000CBF5D9EC01F0010112810001BEEF03F0EF
:101550001CEF05F05AD60501BE6B000124DF4BBC21
:1015600004D00501B56B00013DD787D73CEF58F09B
:10157000020E0601386F140E376F00013EEC03F0C7
:10158000140E0601586FBFC559F6000102EC03F0B6
:10159000120E0601586F010E596F000102EC03F0A4
:1015A000030E0601386F0A0E376F00013EEC03F0A0
:1015B0000A0E0501C26F000157EC03F001C0C2F52D
:1015C000000E050101B0010E000AD8B402D00001DE
:1015D000EFD7020E0601386F140E376F00013EEC94
:1015E00003F0120E0601586F596B000102EC03F074
:1015F000180E0501C26F000157EC03F001C0C0F5E1
:10160000190E0501C26F000157EC03F001C0C1F5CE
:101610000601386B376B00013EEC03F00501C0C5D5
:1016200001F0C1C502F000011BEF0BF0010E050136
:10163000BF6F00019DD701C0BFF5000E050101B4C9
:10164000010E016E000112000501CA6B530EC96F35
:10165000C86BC8510608D8A0A1D00C0EC925E96EE8
:10166000000ECA21EA6EECCFCCF5ED52EFCFCBF5F0
:10167000CB53D8A48DD0CC53D8A48AD00C0EC92576
:10168000E96E000ECA21EA6EC5C5ECFFED52C4C575
:10169000EFFFC45323E1C55321E101013F511F086E
:1016A00005E2FF0A06E13E51000803E33F510F083F
:1016B00003E3100E3F6F3E6B0C0E0501C925E96E6A
:1016C000000ECA21EA6E01013FC103F03E513E2BDC
:1016D000D8B43F2BEF6E03C0ECFF0501C35308E005
:1016E000BF5321E1C0531FE1C1531DE1C2531BE1B0
:1016F000CAC503F0C9C5CBF5CAC5CCF5CAC5EAFF52
:10170000C9C5E9FF0068026A0A0E016E00012DECEE
:1017100005F00E0E0501C925E96E000ECA21EA6E1C
:10172000050EEF6E25D0C351040A000101E01FD061
:101730000501CAC503F0C9C5CBF5CAC5CCF5CAC5F4
:10174000EAFFC9C5E9FFC0C5E2FFBFC5E1FF0A0E58
:10175000016EE6CFEEFF012EFCD70E0EC925E96E15
:10176000000ECA21EA6E050EEF6E02D000010501DF
:101770000A0EC925E96E000ECA21EA6EC7C5ECFF44
:10178000ED52C6C5EFFFC8C552F0C8C501F008D07C
:10179000170EC927D8B0CA2BC82B5BD7FF0E016E16
:1017A000000112001F0E0601536F0001EDEC02F064
:1017B00001C033F6000E060101B6010E000A02E078
:1017C000000E01D0010E016E00011200080E05018D
:1017D000C025C26F000EC121C36FD70EC227110EE4
:1017E000C3230E0EC227000EC323140EC227000E01
:1017F000C323C3C543F6C2C542F600018BEC05F016
:10180000C1C539F1C0C538F11CEF0CF0CBDF015276
:1018100004E1000E016E026E1DD00501BF510101F1
:10182000375D0BE0BFC537F10001F56BF46B0501C7
:10183000C16BC06B0001CAD70101BFC552F0C00E19
:10184000D8800001F455006E050EF555036E00C0FA
:1018500001F0026E12000601216B226B010E236F54
:10186000DA6AD96A060E266F190E256F060EEA6E21
:101870001D0EE96E26C6E2FF25C6E1FF23C624F64B
:10188000D890E550EE02F3502123F4502223242F68
:10189000F7D721C6DEFF22C621F6226BD8B0222B55
:1018A000252BD8B4262B232B23510508DFE100017B
:1018B0001200016A026A006A036A0501CC5102E162
:1018C000CB5118E0100ECD6FD890C937CA3700360B
:1018D0000336CC51035C02E1CB51005C07E3CB51F2
:1018E000005ED8A00306CC51035ED88001360236D4
:1018F000CD2FEAD70001B0EF0CF01EC01CF61DC0C2
:101900001BF61CC01AF61BC019F6410E0601206F0B
:10191000C60E1F6F4E0E1E6F6D0E1D6F00019BDFFA
:10192000390E050100241B6E300E01201C6E000EC6
:1019300002201D6E000E03201E6E1DC000F01EC092
:1019400001F0026A036A1EC0C8F51DC0C7F51EC0BB
:10195000CAF51DC0C9F57F0ECC6FCB690001A9D7B0
:1019600000C001F003C002F0120001013951040867
:1019700008E2FF0A03E13851BF0803E2000E016EDE
:101980001DD0C8C556F6000117EC03F00101382B35
:10199000D8B4392B0001F5510101395D0DE308E19F
:1019A00038510001F45DD8A002D0010105D0010139
:1019B00039C1F5F038C1F4F0010E016E00011200DA
:1019C000C00ED880010138550501CC6F050E01010C
:1019D00039550501CD6FCD51CB5D08E303E1CA5107
:1019E000CC5D04E2CDC5CBF5CCC5CAF5CA51010129
:1019F00038270501CB51010139230001F5510101BF
:101A0000395D0DE308E138510001F45DD8A002D042
:101A1000010105D0010139C1F5F038C1F4F0C9C5A3
:101A200058F6C8C557F6CBC55AF6CAC559F60001CF
:101A3000BFEC05F00501CAC501F0CBC502F00001FD
:101A4000120053C655F652C654F655C656F654C63D
:101A500055F656C654F6060154C601F055C602F0B6
:101A600000011200020E06014C25016E000E4D21F0
:101A7000036E01C04EF64F6F020E4C25E96E000E4C
:101A80004D21EA6EECCF53F6ED52EFCF52F6000146
:101A9000D8DF4FC6EAFF4EC6E9FF02C0ECFFED52A9
:101AA00001C0EFFF040E06014C25016E000E4D2112
:101AB000036E01C04EF64F6F040E4C25E96E000E0A
:101AC0004D21EA6EECCF53F6ED52EFCF52F6000106
:101AD000B8DF4FC6EAFF4EC6E9FF02C0ECFFED5289
:101AE00001C0EFFF0A0E06014C25016E000E4D21CC
:101AF000036E01C04EF64F6F0A0E4C25E96E000EC4
:101B00004D21EA6EECCF53F6ED52EFCF52F60001C5
:101B100098DF4FC6EAFF4EC6E9FF02C0ECFFED5268
:101B200001C0EFFF1200D89006015131536F5031C0
:101B3000526F4FC655F64EC654F6596B586B576BDD
:101B4000566B53C603F05251D8B4530752070310D3
:101B50001EE055C603F054C600F0020E5427D8B05C
:101B6000552B00C0E9FF03C0EAFFECCF03F0ED52B4
:101B7000EFCF00F003C001F0026A036A005056275D
:101B8000015057230250582303505923DAD750519C
:101B9000010B006E036A0050031013E055C603F0FA
:101BA00054C6E9FF55C6EAFFEFCF00F0016A026AAA
:101BB000036A005056270150572302505823035000
:101BC00059235D6B5C6B57C65BF656C65AF658C612
:101BD00000F059C601F0026A036A58515625566F43
:101BE00059515721576F02505C21586F03505D21A6
:101BF000596F585156275951572357C603F0031EA2
:101C00005651FF0A016E03C002F000011200020EDD
:101C10000601586FD70E596F000102EC03F0030E56
:101C20000601586F110E596F000102EC03F0E40E2B
:101C300006015327110E5423060E566F530E556F8F
:101C4000E96E56C6EAFFEFCF59F6060E586F00014F
:101C500002EC03F0060E0601566F530E556F010E8F
:101C60005525E96E000E5621EA6EEFCF59F6070EA4
:101C7000586F000102EC03F051C658F650C657F6F3
:101C800006015A6B060E596F0001BFEC05F0060104
:101C9000566B4C0E556F56C658F6576F5A6B060E5C
:101CA000596F0001BFEC05F0080E0601566F0001E8
:101CB00017EC03F00601525302E1000E01D0060EAC
:101CC000556F566F000117EC03F01200140E01015E
:101CD0002C6F450E0601386F396B140E36253A6F9E
:101CE000000E37213B6F01012A2BD8B42B2B2BC1BF
:101CF0003DF62AC13CF606013F6B3E6B640E406F19
:101D000035C641F6436B426B22C047F621C046F60A
:101D100020C045F61FC044F633C6E9FF34C6EAFFCB
:101D2000EFCF48F6ECCF49F6ECCF4AF6ECCF4BF6C6
:101D3000060E4D6F380E4C6F000194DE060E060144
:101D40004D6F380E4C6F4DC64FF64E6F516B140EE3
:101D5000506F0001E8DE02C043F601C042F6040EF7
:101D600006013325016E000E3421036E01C04CF6CE
:101D70004D6F140E36254E6F000E37214F6F03C086
:101D800051F601C050F6526B546F4EC653F6000127
:101D90003EDF060E06014D6F380E4C6F4DC658F6ED
:101DA000576F5A6B140E596F0001BFEC05F0000E0F
:101DB000016E026E12001F0E06014D6F800E4E6FF7
:101DC000000129EC03F01F0E06014D6F800E4E6FCF
:101DD0000001A8EC02F01C0E06014D6F0A0E4E6FBA
:101DE0000001A8EC02F01F0E06014D6F080E4E6FA9
:101DF000000129EC03F001012951050804E02951F3
:101E00000608D8A4FAD00601346B336B1C0E536F4E
:101E10000001EDEC02F001C041F6060101500A0B91
:101E2000006E036A005003100AE1332BD8B4342B40
:101E30003451030804E3EAE13351E708E7E21C0EFA
:101E4000536F0001EDEC02F001C041F6000E0601F7
:101E500001B2010E000A0AE134510208D8B0CCD018
:101E6000FF0A04E13351E708D8B0C6D01F0E4D6F0A
:101E7000080E4E6F0001A8EC02F00601536B000142
:101E8000EDEC02F001C035F6010E0601536F0001C2
:101E9000EDEC02F001C036F6060E0601536F0001AC
:101EA000EDEC02F001C037F6070E0601536F00019A
:101EB000EDEC02F001C038F60601372BD8B4382B10
:101EC000586B37C659F6000102EC03F0010E06010B
:101ED000586F38C659F6000102EC03F0060E0601F1
:101EE000426F390E416F42C656F6556F586B070E5A
:101EF000576F000114EC06F00601406B40510F08CB
:101F00006CE31C0E536F0001EDEC02F001C041F6D2
:101F1000000E060101B2010E000A5AE03CAB58D097
:101F20001F0E4D6F800E4E6F000129EC03F01F0E47
:101F300006014D6F800E4E6F0001A8EC02F01C0EE2
:101F400006014D6F0A0E4E6F0001A8EC02F01F0E45
:101F500006014D6F080E4E6F000129EC03F01C0EB8
:101F60000601536F0001EDEC02F001C041F60601DD
:101F700001500A0B006E036A00500310D8A402D06F
:101F80000001EDD71F0E4D6F080E4E6F0001A8EC3B
:101F900002F00601586B37C659F6000102EC03F057
:101FA000010E0601586F38C659F6000102EC03F025
:101FB000060E0601426F390E416F42C656F6556F46
:101FC000586B070E576F000114EC06F003D00601A2
:101FD00004D000010601402B91D7586B35C659F645
:101FE000000102EC03F0010E0601586F36C659F6E7
:101FF000000102EC03F00601010100011200525041
:10200000170DF350036A530F016E000E032201C037
:10201000CEF5050103C0CFF5080E0001F42505013A
:10202000D06F000E0001F5210501D16F0C0ECE25F9
:10203000E96E000ECF21EA6EECCF53F6ED52EFCFF2
:1020400052F60001FEDC02C0C7F501C0C6F50A0E5B
:102050000501CE25E96E000ECF21EA6EECCF53F6D6
:10206000ED52EFCF52F60001ECDC02C0C9F501C021
:10207000C8F5D1C553F6D0C552F6E3DC02C0CBF5A6
:1020800001C0CAF50501CD6BCC6B110E0601436F83
:10209000E50E426F00018BEC05F0CEC501F0CFC517
:1020A00003F0CEC5D2F5CFC5D3F5CFC534F6CEC536
:1020B00033F6110E0601356FD1C537F6D0C536F6A9
:1020C000000104DE050E0501D36FC60ED26FD3C525
:1020D00058F6E8CF57F606015A6B080E596F000103
:1020E000BFEC05F068DEF56BF46B010137690001A8
:1020F000D8EF11F00501BF2D0ED000017DEC0CF0E2
:1021000002C041F101C040F17DEC0CF002C043F18E
:1021100001C042F10501010EC86F000126DC010E6D
:102120000501C86F000121DC060E0501C86F000122
:102130001CDC0501C86B000118DC40C1C8F515DCCA
:1021400041C1C8F512DC42C1C8F50FDC43C1C8F576
:102150000CDC0501C86B000108DC0501C86B00013F
:1021600004DC010146A902D0000E01D0800E050159
:10217000C66FC86F0001B5EC0CF00501C86B00011B
:10218000B5EC0CF00501BF51030810E1C0530EE09F
:10219000010EC76F530EC66FC7C5C9F5C86FCB6BAD
:1021A000040ECA6F00010CDC14D00501C86B0001DD
:1021B000B5EC0CF00501C86B0001B5EC0CF00501A5
:1021C000C86B0001B5EC0CF00501C86B0001B5EC63
:1021D0000CF00501C16BC1510B0807E3C86B00018E
:1021E000B5EC0CF00501C12BF6D7C76B4C0EC66FD2
:1021F000C7C5C9F5C86FCB6B060ECA6F0001E0EC0E
:102200000CF00501C16BC151C90807E3C86B00019F
:10221000B5EC0CF00501C12BF6D7630EC86F0001B9
:10222000B5EC0CF0820E0501C86F0001B5EC0CF0A6
:10223000530E0501C86F0001B5EC0CF0630E0501EB
:10224000C86F0001B5EC0CF0350E0501C86F000138
:10225000B5EC0CF0010E0501C86F0001B5EC0CF0F7
:10226000BFC5C8F5B5EC0CF00501BF2D03D00101C9
:1022700046950501BF5103081EE1C0531CE1360E0F
:10228000C86F0001B5EC0CF0040E0501C86F000129
:10229000B5EC0CF052C1C8F5B5EC0CF051C1C8F565
:1022A000B5EC0CF050C1C8F5B5EC0CF04FC1C8F559
:1022B000B5EC0CF00501370EC86F0001B5EC0CF061
:1022C000040E0501C86F0001B5EC0CF0010E05010C
:1022D000C86F0001B5EC0CF0030E0501C86F0001DA
:1022E000B5EC0CF0060E0501C86F0001B5EC0CF062
:1022F0000C0E0501C86F0001B5EC0CF00501BF51D3
:10230000030802E1C05318E0BF2D30D00101535340
:10231000D8B402D0050110D05453D8B402D005016E
:102320000BD05553D8B402D0050106D05653D8A4CB
:1023300002D005011BD00501320EC86F0001B5ECBB
:102340000CF0040E0501C86F0001B5EC0CF0010E95
:102350000501C76F530EC66FC7C5C9F5C86FCB6BF4
:10236000040ECA6F0001E0EC0CF00501C869000121
:10237000B5EC0CF0F55101080AE303E1F4512B0828
:1023800006E30501C86B0001B5EC0CF0F3D722C0E1
:10239000C5F521C0C4F520C0C3F51FC0C2F50501B5
:1023A000C05304E1226A216A206A1F6A000127D60D
:1023B000C5C522F0C4C521F0C3C520F0C2C51FF0B9
:1023C0001200F28A0000F29AD6CF1FF1D7CF20F187
:1023D000010E0601346F210EE96E34C6EAFF1BC1FF
:1023E000EFFF1CC1ECFF1DC1ECFF1EC1ECFFF2A40E
:1023F00002D00001E6D7F28A00011200E2DF010EEE
:102400000601346F1F0E34C603F0E96E34C6EAFFCE
:10241000EFCF00F0ECCF01F0ECCF02F0ECCF03F007
:1024200000011200140E010127250601156F000E90
:10243000010128210601166F11511525136F125144
:102440001621146F1451100809E2FF0A03E1135119
:10245000D50804E2D60E135F110E145B586B13C639
:1024600059F6000102EC03F0010E0601586F14C684
:1024700059F6000102EC03F0120001012C51060193
:102480000D250F6F000E0E21106F126F0FC611F683
:102490000001C8DF1200080E0501CC25CE6F000E2A
:1024A000CD21CF6FE8CF0EF6CEC50DF60001E5DFEA
:1024B000CDC53BF1CCC53AF11200BFC552F00501C4
:1024C000BF5101013D5D04E0000E016E026E16D0A9
:1024D0003CA107D03C910501CD6BCC6B0001DBDF4B
:1024E00001013A510001F65D006E01013B5100010E
:1024F000F759036E00C001F0026E010100011200E5
:10250000F75101013B5D06E308E10001F6510101CD
:102510003A5D03E252503D5D03E0000E016E15D0BE
:10252000CFC503F0CEC5D0F5CFC5D1F500014FEC36
:1025300006F0D1C5EAFFD0C5E9FF01C0EFFF0101F8
:102540003A2BD8B43B2B010E016E00011200F7515B
:1025500001013B5D06E308E10001F65101013A5D2E
:1025600003E252503D5D04E0000E016E026E33D076
:102570003A510001F65D0501D26F01013B510001A6
:10258000F7590501D36FD351D15D08E303E1D05171
:10259000D25D04E2D3C5D1F5D2C5D0F5CFC556F68C
:1025A000CEC555F6D1C558F6D0C557F6000114EC86
:1025B00006F002C0D1F501C0D0F50501D0510101EE
:1025C0003A270501D15101013B230501D0C501F096
:1025D000D1C502F0010100011200010112A501D0D4
:1025E0002FD01285010E255D0501E96F000E010156
:1025F00026590501EA6FEA51100809E2FF0A03E1D2
:10260000E951D50804E2110EEA6FD50EE96F1E0EEE
:1026100006014D6F400E4E6F000129EC03F00C0EC9
:102620000601586FE9C559F6000102EC03F00D0EE2
:102630000601586FEAC559F6000102EC03F00101EA
:102640000001120001013CB307D00001C6DFF76BA7
:10265000F66B01013D693C83000112000501C26B6C
:10266000050ECF6FBF0ECE6F00014ADF0501BF51CF
:102670000208D8A4BFD1CD6B040ECC6F00010BDFD4
:10268000050E0501CF6FC80ECE6FD16B040ED06F53
:1026900000015DDF010140510501C85D0FE101014D
:1026A00041510501C95D0AE1010142510501CA5DBF
:1026B00005E1010143510501CB5D01E0C6D1CD6BC0
:1026C0001C0ECC6F0001E7DE0501C06BC051050890
:1026D00014E3050ECF6FBF0ECE6F000111DF036A4A
:1026E0000501C0514C0FE96E000E0320EA6EEF5059
:1026F000BF5D01E0AAD1C02BE9D7010146B515D0D5
:102700000501CD6B100ECC6F0001C5DE010E050179
:10271000CD6F530ECC6FCDC5CFF5CE6FD16B040E00
:10272000D06F000114DF01015F810501CD6BF00E58
:10273000CC6F0001B0DE0501C391050ECF6FBF0E57
:10274000CE6F0001DDDE015204E10501C38152D1EB
:1027500000010501BF51350A00010EE0340A2DE0E9
:10276000020A5DE0350AD8B49AD0C90AD8B4C3D0F9
:10277000CC0AD8B4C4D026D1050E0501CF6FBF0E48
:10278000CE6F0001BDDE0501BF2D14D0050ECF6F49
:10279000C20ECE6F0001B4DE010146A509D00501CD
:1027A000C2510208D8B402D0010102D04ED10101B9
:1027B00003D005014AD101011AD1050E0501CF6FE1
:1027C000BF0ECE6F00019CDE0501BF51040824E15D
:1027D000010146A510D00501C06BC051030809E3F3
:1027E000050ECF6FBF0ECE6F00018ADE0501C02B34
:1027F000F4D711D00101010E0501CD6F5B0ECC6F36
:10280000CDC5CFF5CE6FD16B040ED06F00019FDE2A
:1028100001015F85050101D018D10101E8D0050E45
:102820000501CF6FC10ECE6F00016ADE0501C151F7
:10283000030824E2010146A510D00501C06BC05178
:10284000030809E3050ECF6FBF0ECE6F000158DEFF
:102850000501C02BF4D711D00101010E0501CD6F88
:10286000570ECC6FCDC5CFF5CE6FD16B040ED06FA8
:1028700000016DDE01015F83050101D0E6D0040E89
:10288000C15FC151C107000A08E0050ECF6FBF0E3E
:10289000CE6F000135DE0501F4D70101A8D0050E89
:1028A0000501CF6FBF0ECE6F00012ADE0501BF51BB
:1028B00004081DE1050ECF6FC70ECE6F000120DEAC
:1028C000050E0501CF6FC60ECE6F000119DE050E95
:1028D0000501CF6FC50ECE6F000112DE050E05019A
:1028E000CF6FC40ECE6F00010BDE03D00501ADD05B
:1028F000000101017CD00501C381010178D0050EE2
:102900000501CF6FBF0ECE6F0001FADD0501BF518B
:10291000040854E1010146A510D00501C06BC05167
:10292000030809E3050ECF6FBF0ECE6F0001E8DD8F
:102930000501C02BF4D741D00101010E0501CF6F75
:102940004E0ECE6F0001DCDD010E0501CF6F4D0E86
:10295000CE6F0001D5DD010E0501CF6F4C0ECE6F9D
:102960000001CEDD010E0501CF6F4B0ECE6F0001D1
:10297000C7DD01014E31036E4D31026E4C31016EE7
:102980004B31006E03320232013200320332023226
:10299000013200320332023201320032033202329B
:1029A00001320032070E031600504B5F01504C5BA2
:1029B00002504D5B03504E5B050101D046D0010132
:1029C00016D00001050E0501CF6FC10ECE6F0001BC
:1029D00097DD0501C151C107000A08E0050ECF6F60
:1029E000BF0ECE6F00018CDDF4D70501010105019A
:1029F000C3A1A3D6C25102080CE1C7C552F1C6C596
:102A000051F1C5C550F1C4C54FF10101468517D03C
:102A10000501C45101014F5D0FE10501C5510101DF
:102A2000505D0AE10501C6510101515D05E1050155
:102A3000C7510101525D03E00501C26B01010001B4
:102A400001DE0501C2C501F005D00001FBDD000E6D
:102A5000016E0501000112000501BE6BBE53D8A432
:102A600078D201014551F30FD8B070D20D0F00019B
:102A7000ACEF17F001016AD20501C26BC16BC06BEC
:102A8000BF6BC36BC56B440EC46FC76B430EC66F81
:102A9000000124EC0BF001C044F10101443D01D0E0
:102AA00055D2020E456F000101014E6B4D6B4C6B10
:102AB0003C0E4B6F5F6B46914695000116EC0BF098
:102AC000015203E1010142D2000144C1BFF506EC0D
:102AD0000CF002C0C0F501C0BFF5050102500108AD
:102AE00007E303E1BF512B0803E301012FD20501E6
:102AF000000E010146B9010E010A4699E8B0468967
:102B00004451170DF3500501C06BBF6F530EBF2525
:102B1000016E000EC021036E01C0C1F5C26FEA6EE6
:102B200001C0E9FF0068026A0A0E016E00012DEC87
:102B300005F0010E0501BF6FC06B00017AEC10F0CB
:102B40005DDC03C04AF102C049F101C048F100C098
:102B500047F1030E0101456FF9D144C1BFF5ADDC6A
:102B600002C0C0F501C0BFF50501C05332E1BF513D
:102B7000F9082FE3000142DC03C0C2F502C0C1F531
:102B800001C0C0F500C0BFF5010147510501BF5F9D
:102B9000010148510501C05B010149510501C15BBB
:102BA00001014A510501C25B0DE1C15101080EE26C
:102BB000FF0A08E1C051610809E2FF0A03E1BF51C1
:102BC000590804E2020E0101456F05010101BED161
:102BD000050101014687000141DD0150020803E0C3
:102BE0000101B4D10001040E0101456F000144C18F
:102BF000BFF506EC0CF002C0C0F501C0BFF5050141
:102C00000250010807E303E1BF51010803E301019A
:102C10009DD1050101014451170DF3500501C06B11
:102C2000BF6F530EBF25016E000EC021036E01C0A1
:102C3000C1F5C26FEA6E01C0E9FF0068026A0A0EC0
:102C4000016E00012DEC05F0030E0501BF6FC06B96
:102C500000017AEC10F0FEEC11F003C04AF102C062
:102C600049F101C048F100C047F1050E0101456F6F
:102C70006DD144C1BFF521DC02C0C0F501C0BFF574
:102C80000501C05333E1BF51F90830E30001FEEC08
:102C900011F003C0C2F502C0C1F501C0C0F500C00B
:102CA000BFF5010147510501BF5F01014851050111
:102CB000C05B010149510501C15B01014A51050198
:102CC000C25B0DE1C15101080EE2FF0A08E1C051EB
:102CD000610809E2FF0A03E1BF51590804E2020E4C
:102CE0000101456F0501010131D105010001B6DC8B
:102CF0000150050A03E0030A37E03AD044C1C0F5A9
:102D0000DAEC04F0010144690001FEEC11F003C0AB
:102D10004AF102C049F101C048F100C047F1060E76
:102D20000101456F468346815FA108D056C122F05C
:102D300055C121F054C120F053C11FF05FA508D048
:102D40005EC126F05DC125F05CC124F05BC123F0BB
:102D50005FA308D05AC12AF059C129F058C128F000
:102D600057C127F0000104D0020E0101456F000198
:102D70000101ECD0FEEC11F003C0C2F502C0C1F5B8
:102D800001C0C0F500C0BFF5010147510501BF5F9B
:102D9000010148510501C05B010149510501C15BB9
:102DA00001014A510501C25B0CE1C1530AE1C05166
:102DB0007A0807E303E1BF51110803E30101C6D01C
:102DC000050101014E5307E14D5305E14C5303E169
:102DD0004B51010810E2120E47277A0E4823000ECD
:102DE00049234A23FF0E4B27D8A04C27D8A04D27B4
:102DF000D8A04E27ABD00501C26BC16BC06BBF6BB7
:102E0000C36BC56B440EC46FC76B430EC66F000126
:102E100024EC0BF001C044F10101443D01D096D0F7
:102E2000070E456F000144C1BFF506EC0CF002C06F
:102E3000C0F501C0BFF505010250010807E303E139
:102E4000BF51010803E3010181D00501030EBF6FEB
:102E5000010EC06F00017AEC10F0010146950001EF
:102E6000FEEC11F003C04AF102C049F101C048F183
:102E700000C047F10101452B69D044C1BFF55DECAD
:102E800012F002C0C0F501C0BFF50501C05337E123
:102E9000BF51F90834E30001FEEC11F003C0C2F5A4
:102EA00002C0C1F501C0C0F500C0BFF50101475126
:102EB0000501BF5F010148510501C05B0101495196
:102EC0000501C15B01014A510501C25B0DE1C15120
:102ED000010812E2FF0A08E1C05161080DE2FF0A91
:102EE00003E1BF51590808E20101452B45510C0887
:102EF00002E2020E456F0501010128D00501000123
:102F00002EEC13F00150050A03E0030A18E01BD071
:102F100044C1C0F5DAEC04F0010144690001FEECA3
:102F200011F003C04AF102C049F101C048F100C0EC
:102F300047F1060E0101456F4683000104D0020EE1
:102F40000101456F0001010101D001010501BE2B06
:102F500085D500013EEF36F0E824F76AF736730FA7
:102F6000F66E2F0EF7220A00F550FA6E0800F550A3
:102F7000F96E742A782AA82A5A2BEE2B722C742DFB
:102F8000262E7A2E262E7A2E262E7A2E000E01013D
:102F900046B1010E016E000143EF36F0E1EC11F095
:102FA00020C109F621C10AF622C10BF623C10CF695
:102FB00009C600F00AC601F00BC602F00CC603F009
:102FC00012000501F351F503F3CF01F0F4CF00F047
:102FD000F603F3500026F451F503F3500020026E7F
:102FE00000011200010E0601386F190E376F000143
:102FF0003EEC03F0190E0601536F0001EDEC02F0F8
:1030000001C033F60601386B0E0E376F00013EEC3F
:1030100003F00E0E0601536F0001EDEC02F001C04B
:1030200035F60F0E0601536F0001EDEC02F001C002
:1030300036F6010E0601386F190E376F00013EECAF
:1030400003F0190E0601536F0001EDEC02F001C010
:1030500037F606013351015CD8B402D00001CAD75B
:10306000386B0C0E376F00013EEC03F00C0E0601BE
:10307000536F0001EDEC02F001C033F60D0E0601B6
:10308000536F0001EDEC02F001C034F6060134513B
:10309000365D16E303E13551335D12E23351355DA0
:1030A000006E34513659036E0050FF0AD60F006E81
:1030B000110E035600C001F003C002F01CD01BD05B
:1030C0003351355D09E13451365D06E1D50E016EAF
:1030D000110E026E10D00FD03551335D376F36515F
:1030E0003459386F010E375D006E000E3859036E8B
:1030F00000C001F0026E00012DEF1DF0060E06016A
:10310000406F3B0E016E40C6EAFFE96EEFCF43F61B
:10311000060E456F3B0E446F030E4425E96E000E0C
:103120004521EA6EEF50431940C6EAFF01C0E9FFAE
:10313000EF6E060E406F3B0E3F6F030E3F25016E94
:10314000000E4021036EEA6E01C0E9FFEFCF43F6A7
:10315000060E456F3B0EE96E45C6EAFFEF50431978
:1031600003C0EAFF01C0E9FFEF6E060E406F3B0EA1
:10317000016E40C6EAFFE96EEFCF43F6060E456FDB
:103180003B0E446F030E4425E96E000E4521EA6EA6
:10319000EF50431940C6EAFF01C0E9FFEF6E060E8B
:1031A000406F3B0E3F6F010E3F25016E000E402128
:1031B000036EEA6E01C0E9FFEFCF43F6060E456FDE
:1031C0003B0E446F020E4425E96E000E4521EA6E67
:1031D000EF50431903C0EAFF01C0E9FFEF6E060E8E
:1031E000406F3B0E3F6F020E3F25016E000E4021E7
:1031F000036EEA6E01C0E9FFEFCF43F6060E456F9E
:103200003B0E446F010E4425E96E000E4521EA6E27
:10321000EF50431903C0EAFF01C0E9FFEF6E060E4D
:10322000406F3B0E3F6F010E3F25016E000E4021A7
:10323000036EEA6E01C0E9FFEFCF43F6060E456F5D
:103240003B0E446F020E4425E96E000E4521EA6EE6
:10325000EF50431903C0EAFF01C0E9FFEF6E3BC620
:1032600000F03CC601F03DC602F03EC603F000018E
:103270001200060133C601F034C603F033C635F63A
:1032800034C636F633C6E9FF34C6EAFFECCF53F650
:10329000ED52EFCF52F6000121EC0DF036C6EAFFF9
:1032A00035C6E9FF02C0ECFFED5201C0EFFF020E90
:1032B00006013325016E000E3421036E01C035F680
:1032C000366F020E3325E96E000E3421EA6EECCF24
:1032D00053F6ED52EFCF52F6000121EC0DF036C659
:1032E000EAFF35C6E9FF02C0ECFFED5201C0EFFF77
:1032F000040E06013325016E000E3421036E01C059
:1033000035F6366F040E3325E96E000E3421EA6E71
:10331000EFCF3BF6ECCF3CF6ECCF3DF6ECCF3EF6F4
:103320000001ECDE36C6EAFF35C6E9FF00C0EFFF5C
:1033300001C0ECFF02C0ECFF03C0ECFF080E060169
:103340003325016E000E3421036E01C035F6366F51
:10335000080E3325E96E000E3421EA6EEFCF3BF6FE
:10336000ECCF3CF6ECCF3DF6ECCF3EF60001C6DEEE
:1033700036C6EAFF35C6E9FF00C0EFFF01C0ECFF2B
:1033800002C0ECFF03C0ECFF0E0E06013325016EF8
:10339000000E3421036E01C035F6366F0E0E332554
:1033A000E96E000E3421EA6EECCF53F6ED52EFCF0A
:1033B00052F6000121EC0DF036C6EAFF35C6E9FFF2
:1033C00002C0ECFFED5201C0EFFF100E06013325E5
:1033D000016E000E3421036E01C035F6366F100EFB
:1033E0003325E96E000E3421EA6EECCF53F6ED5230
:1033F000EFCF52F6000121EC0DF036C6EAFF35C6DC
:10340000E9FF02C0ECFFED5201C0EFFF120E060112
:103410003325016E000E3421036E01C035F6366F80
:10342000120E3325E96E000E3421EA6EECCF53F60E
:10343000ED52EFCF52F6000121EC0DF036C6EAFF57
:1034400035C6E9FF02C0ECFFED5201C0EFFF1200EC
:103450000601376B386B396B3A6B536B0001EDEC3F
:1034600002F001C035F6010E0601536F0001EDECCC
:1034700002F001C036F606013351341158E03453DE
:1034800003E13351140803E2036A140E03D034C677
:1034900003F033513B6F03C03CF6060E546F3D0EF4
:1034A000536F54C656F6556F3CC658F63BC657F692
:1034B000000114EC06F006013B51335F3C51345BD4
:1034C000060E546F3B0EE96E54C6EAFFEFA00CD017
:1034D000060E546F3D0E3B25E96E54513C21EA6EB9
:1034E000EF6A3B2BD8B43C2B060E526F3D0E516F4A
:1034F0003B513C111BE052C603F051C600F0020ED6
:103500005127D8B0522B00C0E9FF03C0EAFFECCF2F
:1035100003F0ED52EF50372703503823000E3923C4
:103520003A23020E3B5F000E3C5BE2D7A5D7586BF7
:1035300035C659F6000102EC03F0010E0601586F82
:1035400036C659F6000102EC03F00601566B556BC6
:1035500038C654F637C653F639C600F03AC601F0FD
:10356000026A036A39513725376F3A513821386F6B
:1035700002505521396F035056213A6F3951372780
:103580003A51382338C603F0031E3751FF0A016E43
:1035900003C002F00001120032EC08F006010951EC
:1035A000010B006E036A0050031004E00101F8876C
:1035B000060109910101F79BF79DF79FF893F89594
:1035C000F8910001D2EC0BF00152FCE00601095128
:1035D000060B006E036A0050031003E0326B316B80
:1035E00019D101018851E65D08E18951E75D05E1E6
:1035F0000601326B316BF7D001018951E75D4FE372
:1036000003E1E651885D4BE28851E65D0601316FCA
:1036100001018951E7590601326F01018F510601FD
:10362000325D0DE308E1315101018E5DD8A002D079
:10363000060105D006018FC132F68EC131F60101B7
:10364000A0510601325D10E308E1315101019F5D97
:10365000D8A002D0060108D00601A0C132F69FC151
:1036600031F60101F8850601120E3B6F0D0E3A6F1F
:103670003C6B89C13EF688C13DF6FBC13FF632C6C0
:1036800041F631C640F60001BFEC07F006013151AA
:10369000010188270601325101018923A3D08851F5
:1036A000E25D06012F6F01018951E3590601306F78
:1036B0000101E65106012F25336F0101E751060193
:1036C0003021346F0101E0510601335D316F01019A
:1036D000E15106013459326F01018F510601325D0B
:1036E0000DE308E1315101018E5DD8A002D0060141
:1036F00005D006018FC132F68EC131F60101A0510D
:103700000601325D10E308E1315101019F5DD8A04F
:1037100002D0060108D00601A0C132F69FC131F6E1
:103720000101F88506013251305D08E303E12F51B4
:10373000315D04E232C630F631C62FF6120E3B6F11
:103740000D0E3A6F3C6B89C13EF688C13DF6FBC158
:103750003FF630C641F62FC640F60001BFEC07F039
:1037600006012F51315D2F6F30513259306F2F517B
:10377000301120E001018851E25D006E8951E3596A
:10378000036E00500D0F0601336F120E0320346FCD
:103790003B6F33C63AF63C6BE1C13EF6E0C13DF605
:1037A000FBC13FF630C641F62FC640F60001BFEC24
:1037B00007F006013151010188270601325101014C
:1037C0008923E351895D0EE303E1E251885D0AE359
:1037D000E051E25D006EE151E359036E0050885FF5
:1037E0000350895B06010101F8A715D08E5106012F
:1037F000315D05E101018F510601325D0BE00101F0
:103800009F510601315D05E10101A0510601325DC4
:1038100001E00981010106013151321107E109512D
:10382000030B006E036A0050031037E031510101B1
:103830008E5F0601325101018F5B06013151321159
:1038400001E009870A51010B006E036A0050031062
:1038500009E00101A16B7F6B7E6B7A0E7D6F120E0A
:103860007C6F06010001FEEC11F001017C510601A4
:1038700000240101EE6F7D51060101200101EF6F6F
:103880007E51060102200101F06F7F5106010320E5
:103890000101F16FF78949D006010A51020B006E50
:1038A000036A0050031014E00101F751010F070BE8
:1038B000006EF80EF7150010F76F010E805F000E16
:1038C000815B825B835B0601326B010E316F2ED010
:1038D0000101F7A92AD006010A51010B006E036A03
:1038E000005003100AE10101A15306E0A107D8909E
:1038F0007F337E337D337C3306010001FEEC11F013
:1039000001017C51060100240101EE6F7D51060189
:1039100001200101EF6F7E51060102200101F06FCD
:103920007F51060103200101F16F06018DC10EF6E2
:103930008CC10DF68BC110F68AC10FF683C114F647
:1039400082C113F681C112F680C111F687C118F643
:1039500086C117F685C116F684C115F63F0E1A15F5
:103960001A6FF00E1915196F09C61AF6206B1F6B26
:1039700032C601F0026A036A315101018027015009
:103980008123025082230350832306010951020B35
:10399000006E036A0050031023E00951100B006E03
:1039A000036A0050031004E1186B176B166B156B5C
:1039B00001019EA30BD0FF0E06011127D8A01227EC
:1039C000D8A01327D8A014270BD00101010E8027FF
:1039D000D8B0812BD8B4822BD8B4832B9E83060118
:1039E0000951010B006E036A0050031003E001014E
:1039F0009E8106010101ED51EB5D1DE303E1EC51F8
:103A0000EA5D19E3E251E45D0601336F0101E35120
:103A1000E5590601346F0101EC51EA5D006EED518C
:103A2000EB59036E00500601335D1B6F0350345990
:103A30001C6F10D00101EA51EC5D0601336F0101EA
:103A4000EB51ED590601346F010E335D1B6F000E13
:103A500034591C6F0001F2EF17F002C00CF601C0E0
:103A60000BF606010C5306E10B513F0803E30C6B08
:103A70000B6B04D0400E0B5F000E0C5B0C511C5DF9
:103A800008E303E11B510B5D04E20CC61CF60BC6F8
:103A90001BF6060E346F0D0E336F000139EC19F072
:103AA000140E06013127000E32230F0E191550098E
:103AB000196F0951020B006E036A0050031017E0E2
:103AC000040E3127000E3223020E216F040E226FE6
:103AD000180E246F020E236F19390F0B010F006EA1
:103AE0000038F00B006E0F0E19150010196F22C070
:103AF00028F621C027F620C026F61FC025F695C15E
:103B00002CF694C12BF693C12AF692C129F62D6B9F
:103B1000060E2E6F32C630F631C62FF630C653F67B
:103B20002FC652F6000121EC0DF002C030F601C0A4
:103B30002FF6060E0601346F250E336F34C64FF68E
:103B40004E6F516B0C0E506F000193EC0DF001C0E5
:103B50001DF606011D1F02C01EF61E1F110E436F2B
:103B6000E50E426F00018BEC05F0010E0601346F8B
:103B7000920E336F060E356F32C637F631C636F603
:103B8000000166EC0EF0060E0601346F0D0E336F69
:103B900034C658F6576F5A6B140E596F0001BFECBC
:103BA00005F006010951020B006E036A0050031074
:103BB0000EE0060E346F210E336F34C658F6576F81
:103BC0005A6B040E596F0001BFEC05F00601110E8F
:103BD000436FF90E426F0001E2EC05F032C634F695
:103BE00031C633F635DC02C00CF601C00BF6120EFE
:103BF0000601436F090E426F00018BEC05F0060EC3
:103C00000601346F0B0E336F34C658F6576F5A6B7C
:103C1000020E596F0001BFEC05F0DBEC0EF0120054
:103C20000501C351000801E26ED0C3C5F3F50001E0
:103C30003AEC05F0EBC1EDF1EAC1ECF10101F6510E
:103C4000000A000115E0020A13E0010A11E0060A69
:103C50000FE0030A10E0010A0EE00C0A29E0050A51
:103C600044E0060A47E0010A45E0050A43E042D085
:103C70009CEC08F047D0110E0601096F010E0A6F87
:103C800000018ADC01018E5303E18F5301E10CD066
:103C90008851E65DD8B402D00001EDD78951E75DC7
:103CA000D8B402D00001E7D7080EF66F00012AD081
:103CB000110E0601096F010E0A6F00016DDC010192
:103CC0008E5303E18F5301E10CD08851E65DD8B4E7
:103CD00002D00001EDD78951E75DD8B402D00001D0
:103CE000E7D70C0EF66F00010DD00D0E0101F66F37
:103CF000000108D0140E0601096F0A6B00014CDCAC
:103D00009CEC08F00501000112000501BE6BBE53DA
:103D1000D8A45CD3BEC5F3F500013AEC05F005016B
:103D2000C06BBF91BF930101F8B302D0F8A50FD0CB
:103D30000001D2EC0BF001520BE0100E0501C06F38
:103D4000BF910101F8A503D00501BF810101000168
:103D50000101F7AB18D00001CEEC17F000500101C3
:103D6000F25D006E0150F359036E00C0C3F505010A
:103D7000C46FE8BE05D0C45305E1C351000802E397
:103D8000100EC06F0101F7AD18D00001CEEC17F096
:103D900000500101F45D006E0150F559036E00C042
:103DA000C3F50501C46FE8BE05D0C45305E1C35196
:103DB000000802E3100EC06F0101F6510B081AE172
:103DC0000001CEEC17F000500101F45D006E0150CF
:103DD000F559036E00C0C3F50501C46FE8BE05D0F8
:103DE000C45309E1C351000806E3110EC06F0C0E65
:103DF0000101F66F05010101F6510408D8A459D15B
:103E00000501C26BC16BC253D8A452D1C151020883
:103E1000D8A04ED1C2C5F4F5C1C5F3F5F66B140EAA
:103E2000F56F0001E1EC17F001C0C3F5100E0501BC
:103E30000124016E000E0220036E0150A40FE96EF2
:103E4000010E0320EA6EECCFC4F5ED52EFCFC3F5BF
:103E5000C35303E1C45301E12BD1C2C5F4F5C1C57D
:103E6000F3F5F66B140EF56F0001E1EC17F001C0ED
:103E7000C3F5100E05010124016E000E0220036E31
:103E80000150A40FE96E010E0320EA6EECCFC4F5D9
:103E9000ED52EFCFC3F50101F9510501C35DD8A47F
:103EA00003D10101FA510501C45DD8A4FDD0000180
:103EB00032EC08F0010E0501C46F920EC36FC2C54B
:103EC000F4F5C1C5F3F5F66B140EF56F0001E1ECE6
:103ED00017F002C0C6F501C0C5F5A40E0501012406
:103EE000016E010E0220036E01C0C7F5C86FC4C584
:103EF000EAFFC3C5E9FFE26E01C0E1FF0A0E016EF1
:103F0000E6CFEEFF012EFCD7C2C5F4F5C1C5F3F52F
:103F1000F66B140EF56F0001E1EC17F001C0C3F56C
:103F20000A0E05010124016E000E0220036E0150ED
:103F3000A40FE96E010E0320EA6EECCF8BF1ED5277
:103F4000EFCF8AF1C2C5F4F5C1C5F3F5F66B140ED7
:103F5000F56F0001E1EC17F001C0C3F50C0E05018F
:103F60000124016E000E0220036E0150A40FE96EC1
:103F7000010E0320EA6EEFCFC3F5ECCFC4F5ECCF12
:103F8000C5F5ECCFC6F5010EC3250101846F000E07
:103F90000501C4210101856F000E0501C521010144
:103FA000866F000E0501C6210101876F925194258D
:103FB0000501C36F0101935195210501C46F0101F2
:103FC0008A510501C32701018B510501C423C35147
:103FD00001018C19F96F0501C45101018D19FA6FA6
:103FE000120E0501C06F060E0101F66FC2C5F4F591
:103FF000C1C5F3F50501F66B140EF56F0001E1EC98
:1040000017F002C003F00150A40F016E010E03224D
:1040100001C0C3F5050103C0C4F5010EC125C56F7C
:10402000000EC221C66FF46FC5C5F3F5F66B140E12
:10403000F56F0001E1EC17F002C003F00150A40F8E
:10404000016E010E032201C0C5F5050103C0C6F5CE
:10405000020ED880C155C76F000EC255C86FF46FED
:10406000C7C5F3F5F66B140EF56F0001E1EC17F020
:1040700002C0C8F501C0C7F5C4C53BF6C3C53AF6D2
:10408000010E06013C6FC6C53EF6C5C53DF63F6F45
:1040900002C041F601C040F60001BFEC07F001018B
:1040A000DD6BDC6B050104D0C12BD8B4C22BABD6C1
:1040B00001010501C0530EE0BFA102D0000E01D0E6
:1040C000010EC36FC0C509F6E8CF0AF60001CCECBB
:1040D0001AF005010101F7B96DD0F651070867E143
:1040E0000001FEEC11F003C0C6F502C0C5F501C029
:1040F000C4F500C0C3F50101EE510501005C006E7E
:104100000101EF5105010158016E0101F051050156
:104110000258026E0101F15105010358036EC66F8A
:1041200002C0C5F501C0C4F500C0C3F5E8AE01D0BA
:104130004BD10101F751070B060818E10501C06BCF
:104140000101F7A703D00501C02B0101BEC5C3F5CE
:10415000000166DDBEC5C3F563DD0501C05304E1A2
:104160000E0E0101F66F05012FD10101000132ECA5
:1041700008F0100E0601096F020E0A6F0001CCEC68
:104180001AF0FEEC11F0B40E050100240101EE6FEF
:10419000C40E050101200101EF6F040E050102208C
:1041A0000101F06F000E050103200101F16F05010F
:1041B0000BD101010001FEEC11F003C0C6F502C0F5
:1041C000C5F501C0C4F500C0C3F50101EE510501FC
:1041D000005C006E0101EF5105010158016E010103
:1041E000F05105010258026E0101F1510501035819
:1041F000036EC66F02C0C5F501C0C4F500C0C3F5AB
:10420000E8AE01D0E1D0000132EC08F00101F65136
:10421000050A00010FE0030A1FE0010A34E00C0A5E
:1042200032E0030A41E0010A4FE0030A53E0060AC4
:1042300061E071D0020E0501C06FBF810101A15183
:10424000030809E2040EA16F7F6B070E7E6FA10EBB
:104250007D6F200E7C6F60D00101A151010806E343
:10426000120E0501C06FBF810CD00101F7A706D067
:10427000140E0501C06FBF8304D00101020E0501B9
:10428000C06F010149D00101A151040806E3100EDD
:104290000501C06FBF8106D00101080EF66F110E37
:1042A0000501C06F010138D00101A151040806E3E6
:1042B000110E0501C06FBF8105D00101140E05016B
:1042C000C06FBF83010128D0140E0501C06FBF83EA
:1042D000010122D00101A151040806E3100E0501DD
:1042E000C06FBF8105D00101140E0501C06FBF83EF
:1042F000010112D00101A151040806E3110E0501CC
:10430000C06FBF8105D00101140E0501C06FBF83CE
:10431000010102D0000101010501C0534FE0BFA11E
:1043200044D00101A12BD8907C377D377E377F3771
:10433000E851885D0501C16F0101E9518959050105
:10434000C26F01018951E95D10E303E1E851885D25
:104350000CE2E051E25D006EE151E359036E005062
:104360000501C1270350C22301010501C15101010B
:10437000805F0501C2510101815B000E825B835B9E
:104380000501C15101018E270501C25101018F2391
:10439000E9C189F1E8C188F1C0C509F606010A6BD7
:1043A0000001CCEC1AF009D00501C0C509F6010ED8
:1043B00006010A6F0001CCEC1AF00501BFA304D07E
:1043C00000019CEC08F00501BE2BA1D4C26BC16BAF
:1043D000C253D8A4BDD0C1510208D8A0B9D0C2C51B
:1043E000F4F5C1C5F3F5F66B140EF56F0001E1ECC1
:1043F00017F001C0C3F5100E05010124016E000E77
:104400000220036E0150A40FE96E010E0320EA6E34
:10441000ECCFC4F5ED52EFCFC3F5C35303E1C45362
:1044200001E196D00001CEEC17F001C0C4F500C048
:10443000C3F5C2C5F4F5C1C5F3F50501F66B140E5D
:10444000F56F0001E1EC17F002C0C6F501C0C5F53B
:10445000120E05010124016E000E0220036E0150B0
:10446000A40FE96E010E0320EA6EECCF03F0ED52CB
:10447000EF50C35F0350C45BC451000865E2FF0AFC
:1044800003E1C3516E0860E2C2C5F4F5C1C5F3F59E
:10449000F66B140EF56F0001E1EC17F002C003F0AB
:1044A0000150A40F016E010E032201C0C3F50501E6
:1044B00003C0C4F5010EC125C56F000EC221C66F31
:1044C000F46FC5C5F3F5F66B140EF56F0001E1EC62
:1044D00017F002C003F00150A40F016E010E032279
:1044E00001C0C5F5050103C0C6F5020ED880C1554F
:1044F000C76F000EC255C86FF46FC7C5F3F5F66BF2
:10450000140EF56F0001E1EC17F002C0C8F501C010
:10451000C7F5C4C53BF6C3C53AF6010E06013C6FAC
:10452000C6C53EF6C5C53DF63F6F02C041F601C0A7
:1045300040F60001BFEC07F00101DD6BDC6B05010B
:10454000C151D8B4C207C107C12BD8B4C22B40D7C0
:10455000000148EF36F00501BE6BBE5106083DE391
:10456000BE51170DF350C06BBF6F0E0EBF25016E0D
:10457000000EC021036E0150530FE96E000E0320A0
:10458000EA6EEF50050814E0BE51170DF350C06BF2
:10459000BF6F0E0EBF25016E000EC021036E0150CD
:1045A000530FE96E000E0320EA6EEF50040801E19C
:1045B00012D0BE51170DF350C06BBF6F0E0EBF254A
:1045C000016E000EC021036E0150530FE96E000E04
:1045D0000320EA6EEF50BE2BC0D700014AEF36F041
:1045E000010E0601386F190E376F00013EEC03F023
:1045F000190E0601536F0001EDEC02F001C0D6F573
:104600000601386B376B00013EEC03F00501D65311
:1046100003E1000E016E8CD0010112B508D000013B
:10462000EDEC12F0000E016E050182D0010126C1F1
:1046300028F125C127F10601586B27C159F6000161
:1046400002EC03F0010E0601586F28C159F6000173
:1046500002EC03F0050E0501D86FC20ED76FD8C566
:1046600056F6E8CF55F60601586B140E576F000149
:1046700014EC06F0D5C553F6D4C552F621EC0DF076
:1046800002C0D5F501C0D4F50501C351100805E2FB
:10469000FF0A19E1C251D50816E3050ED86FC20E04
:1046A000E96ED8C5EAFFEFB00ED0C7BF0CD0C6B9CF
:1046B0000AD0C551040805E2FF0A05E1C451EE081D
:1046C00002E3C6BF01D0FF00C3C526F1C2C525F174
:1046D000BFC503F0BEC5D7F5BFC5D8F5050EDA6F67
:1046E000CE0EBFC5EAFFBEC5E9FFDAC5E2FFE16E47
:1046F000060E016EE6CFEEFF012EFCD7C1C503F01A
:10470000C0C5E9FF03C0EAFFEF68D55108080BE117
:10471000D45303E0D451060806E1C0C5E9FFC1C582
:10472000EAFFD4C5EFFF01011295010E016E0501EC
:10473000000158EF36F00501DCC501F0DDC503F0DE
:10474000DCC5DEF5DDC5DFF5DCC5E9FFDDC5EAFF6B
:10475000ECCF53F6ED52EFCF52F6000121EC0DF005
:10476000DFC5EAFFDEC5E9FF02C0ECFFED5201C084
:10477000EFFF020E0501DC25016E000EDD21036E48
:1047800001C0DEF5DF6F020EDC25E96E000EDD21D3
:10479000EA6EECCF53F6ED52EFCF52F6000121EC6A
:1047A0000DF0DFC5EAFFDEC5E9FF02C0ECFFED5208
:1047B00001C0EFFF060E0501DC25016E000EDD21B4
:1047C000036E01C0DEF5DF6F060EDC25E96E000E1C
:1047D000DD21EA6EECCF53F6ED52EFCF52F6000139
:1047E00021EC0DF0DFC5EAFFDEC5E9FF02C0ECFFFA
:1047F000ED5201C0EFFF1200D2EC0BF00152FCE0D1
:10480000110E0601436FD70E426F00018BEC05F0CD
:104810000501DAC5E9FFDBC5EAFFEC6AED52010EDE
:10482000EF6E020EDA25E96E000EDB21EA6E080E4D
:10483000EC6EED52EF6A040EDA25E96E000EDB2114
:10484000EA6E060EEF6E050EDA25E96E000EDB212C
:10485000EA6E040EEF6E080EDA25016E000EDB2103
:10486000036E01C0DCF5DD6FDF6B4C0E03C0EAFFA9
:1048700001C0E9FFDFC5E2FFE16E060E016EE6CF83
:10488000EEFF012EFCD70E0EDA25E96E000EDB21BD
:10489000EA6E1FC0EFFF20C0ECFF21C0ECFF22C07A
:1048A000ECFFDBC5DDF5DAC5DCF5000144DF120EF7
:1048B0000501DA25016E000EDB21036E01C0DCF577
:1048C000DD6FE8CF51F601C050F6060E0601526FBB
:1048D000546B1C0E536F000107EC0EF0DBC558F64D
:1048E000DAC557F606015A6B1C0E596F0001BFEC72
:1048F00005F0DBEC0EF0010E016EFDEF24F0000E72
:10490000010112B7010E000A000103E0010A55E09F
:104910007ED0050E0501DB6FBE0EDA6FDBC556F6E5
:10492000E8CF55F60601586B1C0E576F000114ECCA
:1049300006F0EDEC12F0050E0501DD6FBE0EDC6F2A
:104940000001F9DE0501BE2D08D0BF5306E1C251BA
:10495000060803E1C351040803E0010E016E5AD0BA
:10496000C42D2AD0C55328E11F50D65D09E120503F
:10497000D75D06E12150D85D03E12250D95D03E007
:10498000010E016E47D0CFC530F1CEC52FF1CDC598
:104990002EF1CCC52DF1010EEA6E310EE96E050E39
:1049A000E26EC60EE16E060E016EE6CFEEFF012E40
:1049B000FCD701011287050100010501C56B020E3C
:1049C000C46F050EEA6ED00EE96E010EE26E310E76
:1049D000E16E060E016EE6CFEEFF012EFCD730C170
:1049E000D9F52FC1D8F52EC1D7F52DC1D6F5050EB5
:1049F000DB6FBE0EDA6F0001FFD6015205E1000E3B
:104A0000016E050107D00001010112970001010E9E
:104A1000016E05010001FDEF36F0140E010127259E
:104A20000501E46F000E010128210501E56FDC514D
:104A3000E425E06FDD51E521E16FE151100809E265
:104A4000FF0A03E1E051D50804E2D60EE05F110E43
:104A5000E15B0601536B0001EDEC02F001C0E2F5F1
:104A6000010E0601536F0001EDEC02F001C0E3F509
:104A70000601586BE0C559F6000102EC03F0010E87
:104A80000601586FE1C559F6000102EC03F0DFC5DD
:104A900034F6DEC533F628EC1AF002C0E1F501C0A9
:104AA000E0F50601586BE2C559F6000102EC03F08F
:104AB000010E0601586FE3C559F6000102EC03F040
:104AC0000501E0C501F0E1C502F000011200050E8C
:104AD0000501DD6FC80EDC6FDDC556F6E8CF55F673
:104AE0000601586B140E576F000114EC06F0050117
:104AF000C851F00BDC6FDD6BDC51400802E1DD5387
:104B000003E0000E016E6ED0CE511F0B006ECFC5BC
:104B100003F00050CF1103E0000E016E63D0C851C6
:104B20000F0BDC6FDD6BDC35026EDD35036E02369C
:104B30000336FC0E021602C02CF101010501DD6BEB
:104B4000DC6BDF6B2CC1DEF5000167DF02C0C7F54F
:104B500001C0C6F50601126B2CC111F6000112EC62
:104B600012F00501C651C71103E0000E016E3AD0E4
:104B7000050E06014D6FC80E4C6F000132EC0DF0B2
:104B80000501BE51BF110CE0BEC5E9FFBFC5EAFF7C
:104B9000D8C5EFFFD9C5ECFFDAC5ECFFDBC5ECFFEC
:104BA000C0C5E9FFC151EA6ED4C5EFFFD5C5ECFF22
:104BB000D6C5ECFFD7C5ECFFC2C5E9FFC3C5EAFF08
:104BC000D1C5EFFFC4C5E9FFC5C5EAFF01012C51FE
:104BD0000501CA5D006E000ECB5900C0EFFFEC6E00
:104BE000010E016E00017AEF36F0050E0501C76F68
:104BF000C20EC66FC7C556F6E8CF55F60601586B0C
:104C0000040E576F000114EC06F00501C2510808AC
:104C10005EE1C3535CE1DD6B140EDC6FC1C5DFF5F3
:104C2000C0C5DEF50001F9DE0150021001E04ED0F2
:104C30000501C26B080EC427C451070804E3C52B45
:104C4000C55301E1C42B0001D2EC0BF00152FCE092
:104C5000110E0601436FE50E426F00018BEC05F06B
:104C6000BFC534F6BEC533F6010E0601356FC1C5AA
:104C700037F6C0C536F6000166EC0EF0050E0501EC
:104C8000C76FC20EC66FC7C558F6E8CF57F6060104
:104C90005A6B040E596F0001BFEC05F0040E0501BC
:104CA000C05DC66F000EC159C76F060143694269F6
:104CB00045694469476FC6C546F6000164EC06F0D5
:104CC000ABEC07F00152FCE0DBEC0EF0050100015B
:104CD000D0EF36F0020E0501E925E96E000EEA215B
:104CE000EA6EECCFF4F5ED52EFCFF3F5F35305E1B7
:104CF000F45303E1000E016EFDD2FE0EEE6F020EC4
:104D0000EB25E96E000EEC21EA6EECCFF4F5ED52E6
:104D1000EFCFF3F5EBC5E9FFECC5EAFFECCF03F00D
:104D2000ED52EF50F3270350F423E9C5E9FFEAC53C
:104D3000EAFFECCF03F0ED52EF50F3270350F423DA
:104D4000020EE925E96E000EEA21EA6EECCF03F0CF
:104D5000ED52EF50F319EF6F0350F419F06FED6B54
:104D6000ED53D8A481D0EDC5F3F500013AEC05F080
:104D70000101F6510D0802E174D023D0F651040868
:104D800015E1020E0501E925E96E000EEA21EA6E41
:104D9000ECCF03F0ED52EF500101F95D05E1035056
:104DA000FA5D02E1EDC5EEF55CD00BD00501EF51E7
:104DB0000101F95D05E10501F0510101FA5D01E034
:104DC00050D0000132EC08F0020E0501E925E96E31
:104DD000000EEA21EA6EECCFF4F5ED52EFCFF3F5D9
:104DE00001018C510501F35D3BE101018D5105018C
:104DF000F45D36E1E9C5E9FFEAC5EAFFECCFF4F579
:104E0000ED52EFCFF3F501018A510501F35D28E181
:104E100001018B510501F45D23E1EBC5E9FFECC510
:104E2000EAFFEFCFF3F5ECCFF4F5ECCFF5F5ECCFEF
:104E3000F6F5010192510501F35D12E10101935173
:104E40000501F45D0DE1010194510501F55D08E1F5
:104E5000010195510501F65D03E1010E016E4AD293
:104E600001010501ED2B7CD7EE51FE083AE0EEC5BD
:104E7000F3F500013AEC05F032EC08F00501EE51D3
:104E8000FE082FE0F0C5FAF1EFC5F9F1010EF46F5D
:104E9000920EF4C5EAFFE96EECC5E2FFEBC5E1FF57
:104EA0000A0E016EE6CFEEFF012EFCD7E9C5E9FF41
:104EB000EAC5EAFFECCF8BF1ED52EFCF8AF1020E9B
:104EC000E925E96E000EEA21EA6EECCF8DF1ED5294
:104ED000EFCF8CF1E1C189F1E0C188F1010E016EE3
:104EE00009D20D0EE925E96E000EEA21EA6EEFB255
:104EF00003D0000E016EFED10101DC51DD1105E091
:104F0000000E016E0501F6D101010501F26BF16B96
:104F1000F253D8A4E6D0F1510208D8A0E2D0F2C5ED
:104F2000F4F5F1C5F3F5F66B140EF56F0001E1EC45
:104F300017F001C0F3F5100E05010124016E000EFB
:104F40000220036E0150A40FE96E010E0320EA6EE9
:104F5000ECCFF4F5ED52EFCFF3F5F35303E1F45357
:104F600001E1BFD0F2C5F4F5F1C5F3F5F66B140E0F
:104F7000F56F0001E1EC17F001C0F3F5100E05012B
:104F80000124016E000E0220036E0150A40FE96E91
:104F9000010E0320EA6EECCFF4F5ED52EFCFF3F5FE
:104FA000020EE925E96E000EEA21EA6EECCF03F06D
:104FB000ED52EF50F35D03E10350F45D01E08DD05D
:104FC000F2C5F4F5F1C5F3F5F66B140EF56F0001BB
:104FD000E1EC17F001C0F3F50A0E05010124016EA2
:104FE000000E0220036E0150A40FE96E010E032093
:104FF000EA6EECCFF4F5ED52EFCFF3F5E9C5E9FF3A
:10500000EAC5EAFFECCF03F0ED52EF50F35D03E1A8
:105010000350F45D01E061D0F2C5F4F5F1C5F3F59C
:10502000F66B140EF56F0001E1EC17F002C0F4F519
:1050300001C0F3F5A40E05010124E96E010E022062
:10504000EA6EEFCFF5F5ECCFF6F5ECCFF7F5ECCF58
:10505000F8F5EBC5E9FFECC5EAFFEFCF00F0ECCFC8
:1050600001F0ECCF02F0ECCF03F00050F55D09E168
:105070000150F65D06E10250F75D03E10350F85D73
:1050800001E02BD0F2C5F4F5F1C5F3F5F66B140E83
:10509000F56F0001E1EC17F001C0F3F5120E050108
:1050A0000124016E000E0220036E0150A40F016E58
:1050B000010E032201C0F3F503C0F4F50001CEECAC
:1050C00017F0F4C5EAFFF3C5E9FF00C0EFFF01C028
:1050D000ECFF000E016E05010DD1F12BD8B4F22BBF
:1050E00017D7ED6BED53D8A403D1EDC5F3F500014F
:1050F0003AEC05F00101F7B701D0F7D0000132EC2E
:1051000008F0020E0501E925E96E000EEA21EA6EBB
:10511000ECCF03F0ED52EF5001018C5D03E1035041
:105120008D5D01E0E2D0F2C5F4F5F1C5F3F50501BE
:10513000F66B140EF56F0001E1EC17F002C0F4F508
:1051400001C0F3F5A40E05010124016E010E022039
:10515000036E01C0F5F5F66FEA6E01C0E9FFECC51C
:10516000E2FFEBC5E1FF0A0E016EE6CFEEFF012E76
:10517000FCD7F2C5F4F5F1C5F3F5F66B140EF56F37
:105180000001E1EC17F001C0F3F50A0E050101245E
:10519000016E000E0220036E0150A40F016E010E7D
:1051A000032203C0F4F5E9C5E9FFEAC5EAFFECCF45
:1051B00003F0ED52EFCFF5F5F4C5EAFF01C0E9FFCA
:1051C00003C0ECFFED52F5C5EFFFF2C5F4F5F1C5F4
:1051D000F3F5F66B140EF56F0001E1EC17F001C06A
:1051E000F3F50C0E05010124016E000E0220036E82
:1051F0000150A40F016E010E032201C0F3F503C09C
:10520000F4F5040EE925E96E000EEA21EA6EEFCF0F
:1052100000F0ECCF01F0ECCF02F0ECCF03F0F4C5DE
:10522000EAFFF3C5E9FF00C0EFFF01C0ECFF02C0D9
:10523000ECFF03C0ECFFF2C5F4F5F1C5F3F5F66B36
:10524000140EF56F0001E1EC17F001C0F3F5100E3C
:1052500005010124016E000E0220036E0150A40F0F
:10526000016E010E032203C0F4F5020EE925E96E7A
:10527000000EEA21EA6EECCF03F0ED52EFCFF5F528
:10528000F4C5EAFF01C0E9FF03C0ECFFED52F5C52C
:10529000EFFFF2C5F4F5F1C5F3F5F66B140EF56FFB
:1052A0000001E1EC17F001C0F3F5120E0501012435
:1052B000016E000E0220036E0150A40F016E010E5C
:1052C000032201C0F3F503C0F4F50001CEEC17F0A2
:1052D000F4C5EAFFF3C5E9FF00C0EFFF01C0ECFF32
:1052E000000E016E050106D001010501ED2BFAD675
:1052F000000E016E000175EF34F006010E6B0C0E0E
:105300000D6F00013DEC12F04FEC06F001C009F604
:1053100006010951F00B0D6F0E6B0E330D330E337A
:105320000D333F0E0E17140E0D5D096F095305E185
:10533000180E016E020E026E70D0566B556B586BD4
:10534000070E576F000114EC06F00601095109071A
:10535000000AD8B45ED000014FEC06F001C00AF696
:1053600006010A5301E155D00A2D01D0EFD70A51A9
:10537000020835E10951020801E34BD00C6B0B6BBD
:1053800000014FEC06F001C00AF606010A510408BC
:105390000AE100014FEC06F001C00CF64FEC06F0FC
:1053A00001C00BF606010C51020805E303E10B51A5
:1053B000170801E32ED00C5104080BE2FF0A03E1A9
:1053C0000B51B40806E2B40E016E050E026E25D034
:1053D00005D00BC601F00CC602F01FD019D0095140
:1053E000010801E316D000014FEC06F001C00AF6F7
:1053F00006010A51095D01E20CD0566B556B586BE2
:105400000AC657F6000114EC06F006010A51095FBE
:105410009DD7180E016E020E026E000112000D0ED5
:105420000501E925E96E000EEA21EA6EEFCFFBF5F2
:10543000080EE925E96E000EEA21EA6EEFCFFCF5D1
:10544000ECCFFDF5ECCFFEF5ECCFFFF5040EE92532
:10545000E96E000EEA21EA6EEFCF00F6ECCF01F61E
:10546000ECCF02F6ECCF03F6F80E0101F715F76F5B
:10547000F7B917D00001FEEC11F0B40E06010024BC
:105480000101EE6FC40E060101200101EF6F040E51
:10549000060102200101F06F000E06010320010148
:1054A000F16FF651040A000103E0010A5FE011D137
:1054B0000501FB51040B006E036A0050031006E067
:1054C00000019CEC08F0CDEF33F00501FB51100B0F
:1054D000006E036A0050031014E0FFC583F1FEC59F
:1054E00082F1FDC581F1FCC580F1040E0601096F52
:1054F0000A6B0001CCEC1AF09CEC08F0CDEF33F015
:105500000501FB51020B006E036A0050031027E0F7
:10551000010E060100250101846F000E0601012124
:105520000101856F000E060102210101866F000E48
:10553000060103210101876F0001DFDE02C0A0F137
:1055400001C09FF1120E0601096F010E0A6F0001E2
:10555000CCEC1AF0060E0101F66F05D00501000132
:105560009CEC08F001010001CDEF33F00501FB5187
:10557000040B006E036A0050031004E00001CDEF3D
:1055800033F00501FB51100B006E036A005003104D
:1055900037E0010180510501FC5D0FE101018151FE
:1055A0000501FD5D0AE1010182510501FE5D05E194
:1055B000010183510501FF5D23E083C103F682C130
:1055C00002F681C101F680C100F6FFC583F1FEC578
:1055D00082F1FDC581F1FCC580F1040E0601096F61
:1055E000010E0A6F0001CCEC1AF003C683F102C66B
:1055F00082F101C681F100C680F1CDEF33F00501E3
:10560000FB51020B006E036A005003105FE0010EB5
:10561000060100250101846F000E06010121010130
:10562000856F000E060102210101866F000E060142
:1056300003210101876F0E0E0501E925E96E000EB9
:10564000EA21EA6EECCF8FF1ED52EFCF8EF100013F
:1056500054DE02C0A0F101C09FF10501FB51100B07
:10566000006E036A0050031025E0100E0601096F5A
:10567000010E0A6F0001CCEC1AF0070E0101F66F63
:105680000001FEEC11F0B40E060100240101EE6FE2
:10569000C40E060101200101EF6F040E0601022075
:1056A0000101F06F000E060103200101F16FF7996F
:1056B0000CD00501120E0601096F010E0A6F0001E0
:1056C000CCEC1AF0060E0101F66F05010001CDEFDA
:1056D00033F0ECC505F6EBC504F60501FB51010BF3
:1056E000006E036A0050031005E00601042BD8B4D5
:1056F000052B0501FB51020B006E036A00500310DD
:1057000005E00601042BD8B4052B05010101ED517C
:10571000EB5D20E303E1EC51EA5D1CE3E251E45D63
:105720000601096F0101E351E55906010A6F010104
:10573000EC51EA5D006EED51EB59036E005006012D
:10574000095D0501F96F035006010A590501FA6F59
:1057500013D00101EA51EC5D0601096F0101EB5123
:10576000ED5906010A6F010E095D0501F96F000E82
:1057700006010A590501FA6F010184510601005D15
:10578000006E0101855106010159016E010186512A
:1057900006010259026E0101875106010359E8CF43
:1057A000F6F502C0F5F501C0F4F500C0F3F5F4C557
:1057B000F8F5F3C5F7F5069104510511D8B4AAD050
:1057C0000501F951FA11D8B4A3D0F6BF0FD0F653A2
:1057D0000DE1F5530BE1F451FA5D08E303E1F951F2
:1057E000F35D04E2060106815DD0050104C600F008
:1057F00005C601F0026A036A0050F3250601096F2D
:1058000005510501F42106010A6F02500501F52139
:1058100006010B6F03500501F62106010C6FE8BE6F
:1058200041D00C5307E10B5305E10A5303E1095141
:10583000000838E204510501F95D006E06010551CA
:105840000501FA59036E005003C001F0026A036AB1
:1058500001AE02D002060306F6AF03D003AE20D09D
:1058600004D003AE02D006011DD0F651035CD8B0BF
:1058700002D0060117D014E1F551025CD8B002D075
:10588000060110D00DE1F451015CD8B002D0060140
:1058900009D006E1F351005CD8B002D0060102D075
:1058A00006010681F9C500F0FAC501F0026A036A33
:1058B0000501F6AF03D003AE12D002D003BE28D04C
:1058C000F651035C25E30BE1F551025C21E307E1AE
:1058D000F451015C1DE303E10050F35D19E20601A0
:1058E00004510501F7250601096F05510501F8214D
:1058F00006010A6FE8AE02D005010AD00A5306E19C
:1059000009510008D8A002D0050102D00681050186
:105910001ED006010501F3530AE1F45308E1F553E3
:1059200006E1F65304E10601068110D00501F6BF39
:105930000ED0F6530CE1F5530AE1F451FA5D07E39A
:1059400003E1F951F35D03E2060106810501060159
:1059500006B115D00501FB51040B006E036A00501F
:10596000031009E1100E0601096F010E0A6F000114
:10597000CCEC1AF005010001CDEF33F00601050172
:10598000FB51060B006E036A0050031006E0000195
:105990009CEC08F0CDEF33F00501FB51100B006ECD
:1059A000036A0050031004E10001CDEF33F005015C
:1059B0000101F651060A00010EE0010A47E00F0A54
:1059C00045E0010A43E0020A41E0010A3FE0060A1D
:1059D000D8B4E4D212D3010180510501FC5D0FE17E
:1059E000010181510501FD5D0AE1010182510501BD
:1059F000FE5D05E1010183510501FF5D23E083C1E7
:105A000003F682C102F681C101F680C100F6FFC52E
:105A100083F1FEC582F1FDC581F1FCC580F1040E64
:105A20000601096F010E0A6F0001CCEC1AF003C6E3
:105A300083F102C682F101C681F100C680F1CDEF8B
:105A400033F00501070E0101F66F000101018851D5
:105A5000E65D0501F16F01018951E7590501F26F1A
:105A6000F2AF0CD00101E051E25D006EE151E3596B
:105A7000036E00500501F1270350F223026A036A06
:105A8000F151010180250501ED6FF25101018121E4
:105A90000501EE6F0250010182210501EF6F0350F5
:105AA000010183210501F06FED51FC5D006EEE51A7
:105AB000FD59016EEF51FE59026EF051FF59F06F22
:105AC00002C0EFF501C0EEF500C0EDF5F0BF32D039
:105AD000F05307E1EF5305E1EE5303E1ED51000808
