:060000007AEF64F012002B
:08000800046ED8CF05F0E0CF33
:1000100006F00001E9CF0CF0EACF07F0E1CF08F0DD
:10002000E2CF09F0D9CF0AF0DACF0BF0F3CF12F01C
:10003000F4CF13F0FACF14F0F5CF15F0F6CF16F099
:10004000F7CF17F000C00EF001C00FF002C010F0A3
:1000500003C011F0F2AA30EF00F0F2B457EF00F055
:100060000EC000F00FC001F010C002F011C003F08C
:100070000CC0E9FF07C0EAFF078E08C0E1FF09C016
:10008000E2FF0AC0D9FF0BC0DAFF12C0F3FF13C0B2
:10009000F4FF14C0FAFF15C0F5FF16C0F6FF17C035
:1000A000F7FF045006C0E0FF05C0D8FF1000512A3A
:1000B000D8B4522A542A5450090802E2532A546AE6
:1000C0003C0ED76EAF0ED66EF29430EF00F03C4887
:1000D000544D4C3E3C424F44593E3C48313E4572A3
:1000E000726F722050617373776F7264206F722029
:1000F000557365726E616D652F34303420457272B0
:100100006F723C2F48313E3C48523E3C503E4C6F53
:1001100067696E2F66696C65204E6F7420666F7517
:100120006E642E3C2F424F44593E3C2F48544D4C58
:100130003E200A3C503E3C4120485245463D222F3D
:10014000223E494E4943494F3C2F413E202000006A
:100150003C48544D4C3E3C424F44593E3C48313E55
:10016000353030204572726F723C2F48313E3C482A
:10017000523E3C503E496E7465726E616C20536510
:1001800072766572204572726F723C2F424F4459ED
:100190003E3C2F48544D4C3E0000485454502F31A3
:1001A0002E3020254C5520004E6F7420666F756EE2
:1001B0006400536572766572204572726F7200003A
:1001C0000D0A436F6E74656E742D547970653A2014
:1001D0000000746578742F68746D6C000D0A0D0A48
:1001E0000000200A3C21444F435459504520687474
:1001F0006D6C3E200A3C68746D6C206C616E673DCE
:10020000226573223E200A3C6D657461206368613B
:10021000727365743D225554462D38223E200A3CA7
:100220006D657461206E616D653D224D6F62696C14
:10023000654F7074696D697A65642220636F6E74AE
:10024000656E743D22776964746822202F3E200A0F
:100250003C6D657461206E616D653D2248616E6420
:1002600068656C64467269656E646C792220636FA0
:100270006E74656E743D227472756522202F3E2067
:100280000A3C6D657461206E616D653D227669651D
:1002900077706F72742220636F6E74656E743D2286
:1002A00077696474683D6465766963652D77696410
:1002B00074682C20696E697469616C2D7363616C5C
:1002C000653D31223E200A3C7469746C653E456D83
:1002D0006265646465642053657276657220416C62
:1002E0007465633C2F7469746C653E20200A3C641D
:1002F0006976207374796C653D22746578742D611C
:100300006C69676E3A2063656E7465723B223E20AD
:100310000A3C646976207374796C653D22626F785B
:100320002D73697A696E673A20626F726465722D07
:10033000626F783B20646973706C61793A20696EF2
:100340006C696E652D626C6F636B3B2077696474BA
:10035000683A206175746F3B206D61782D77696410
:1003600074683A2034383070783B206261636B6780
:10037000726F756E642D636F6C6F723A2023464600
:10038000464646463B20626F726465723A20327080
:100390007820736F6C696420233033363141383BE9
:1003A00020626F726465722D7261646975733A20A0
:1003B0003570783B20626F782D736861646F773A8F
:1003C00020307078203070782038707820233033D7
:1003D000363141383B206D617267696E3A203530A5
:1003E0007078206175746F206175746F3B223E20B8
:1003F0000A3C646976207374796C653D226261639E
:100400006B67726F756E643A202330333631413832
:100410003B20626F726465722D7261646975733A14
:1004200020357078203570782030707820307078E2
:100430003B2070616464696E673A20313570783BA7
:10044000223E3C7370616E207374796C653D226648
:100450006F6E742D66616D696C793A207665726491
:10046000616E612C617269616C3B20636F6C6F72AD
:100470003A20234434443444343B20666F6E742D58
:1004800073697A653A20312E3030656D3B20666F96
:100490006E742D7765696768743A626F6C643B228D
:1004A0003E456D6265642053657276657220416CCD
:1004B0007465633C2F7370616E3E3C2F6469763EB9
:1004C000202020202020202020200A3C6469762043
:1004D0007374796C653D226261636B67726F756ED0
:1004E000643A203B2070616464696E673A2031355C
:1004F0007078222069643D2261705F7374796C6545
:10050000223E2020202020202020202020202020CB
:1005100020202020202020202020202020202020DB
:1005200020202020202020202020202020202020CB
:1005300020202020202020202020202020202020BB
:1005400020202020202020202020202020202020AB
:10055000202020202020202020202020202020209B
:10056000202020202020202020202020202020208B
:10057000202020202020202020202020202020207B
:10058000202020202020202020202020202020206B
:10059000202020202020202020202020202020205B
:1005A000202020202020202020202020202020204B
:1005B0002020202020202020200A3C7374796C65A4
:1005C00020747970653D22746578742F637373228B
:1005D0002073636F7065643E20202020202020203F
:1005E000202020202020202020202020202020200B
:1005F0002020200A2361705F7374796C6520746415
:10060000207B20746578742D616C69676E3A6C6527
:1006100066743B20666F6E742D66616D696C793A05
:100620002076657264616E612C617269616C3B2039
:10063000636F6C6F723A20233036343037333B208F
:10064000666F6E742D73697A653A20312E3030658D
:100650006D3B207D200A2361705F7374796C652087
:10066000696E707574207B20626F726465723A20C7
:1006700031707820736F6C69642023434343434394
:10068000433B20626F726465722D72616469757399
:100690003A203570783B20636F6C6F723A202336B6
:1006A00036363636363B20646973706C61793A2091
:1006B000696E6C696E652D626C6F636B3B20666F53
:1006C0006E742D73697A653A20312E3030656D3B3A
:1006D000202070616464696E673A203570783B2031
:1006E0007D200A2361705F7374796C6520696E7078
:1006F00075745B747970653D2274657874225D2C25
:1007000020696E7075745B747970653D22706173D9
:1007100073776F7264225D207B2077696474683A16
:1007200020313030253B207D20202020202020201B
:1007300020202020202020202020202020202020B9
:1007400020202020202020202020202020202020A9
:100750002020202020202020202020202020202099
:100760002020202020202020202020202020202089
:100770002020202020202020202020202020202079
:100780002020202020202020202020202020202069
:100790002020202020202020202020202020202059
:1007A0000A2361705F7374796C6520696E7075746B
:1007B0005B747970653D22627574746F6E225D2C76
:1007C000200A2361705F7374796C6520696E70759F
:1007D000745B747970653D227265736574225D2C5B
:1007E000200A2361705F7374796C6520696E70757F
:1007F000745B747970653D227375626D6974225DF6
:10080000207B206865696768743A206175746F3B66
:100810002077696474683A206175746F3B20637552
:1008200072736F723A20706F696E7465723B2062EA
:100830006F782D736861646F773A2030707820305C
:1008400070782035707820233033363141383B20A2
:10085000666C6F61743A2072696768743B207465D6
:1008600078742D616C69676E3A72696768743B20B1
:100870006D617267696E2D746F703A2031307078D7
:100880003B206D617267696E2D6C6566743A3770D6
:10089000783B7D200A2361705F7374796C652074E6
:1008A00061626C652E63656E746572207B206D617C
:1008B0007267696E2D6C6566743A6175746F3B2062
:1008C0006D617267696E2D72696768743A617574DB
:1008D0006F3B207D200A2361705F7374796C652003
:1008E0002E6572726F72207B20666F6E742D66614A
:1008F0006D696C793A2076657264616E612C617203
:1009000069616C3B20636F6C6F723A202344343111
:100910003331333B20666F6E742D73697A653A20EC
:10092000312E3030656D3B207D200A3C2F73747969
:100930006C653E200A3C703E3C696D6720737263B3
:100940003D22646174613A696D6167652F6769660C
:100950003B6261736536342C2F396A2F3441415123
:10096000536B5A4A5267414241514541594142678E
:100970004141442F34514175525868705A67414182
:10098000545530414B67414141416741416C4541BC
:10099000414151414141414241414141414645422C
:1009A00041414D41200A414141424141454141417E
:1009B00041414141442F32774244414149424151F2
:1009C000494241514943416749434167494341775E
:1009D000554441774D444177594542414D46427710
:1009E000594842776347427763494351734A4341C9
:1009F000674B200A434163484367304B4367734D5D
:100A00004441774D42776B4F4477304D4467734D87
:100A100044417A2F327742444151494341674D4422
:100A2000417759444177594D434163494441774D9A
:100A30004441774D4441774D4441774D4441774D92
:100A4000200A4441774D4441774D4441774D44411C
:100A5000774D4441774D4441774D4441774D444172
:100A6000774D4441774D4441774D4441774D444162
:100A70007A2F7741415243414235415273444153A9
:100A8000494141684542417845422F385141200A49
:100A900048774141415155424151454241514541BB
:100AA00041414141414141414141454341775146E5
:100AB0004267634943516F4C2F3851417452414151
:100AC0004167454441774945417755464241514147
:100AD000414146394151494441415152200A425213
:100AE00049684D5545474531466842794A784644FC
:100AF0004B426B61454949304B78775256533066CB
:100B0000416B4D324A7967676B4B46686359475270
:100B10006F6C4A69636F4B536F304E5459334F4477
:100B20006B3651305246526B6449200A535570540B
:100B3000564656575631685A576D4E6B5A575A6E2D
:100B400061476C7163335231646E6434655871442B
:100B5000684957476834694A69704B546C4A57571B
:100B60006C35695A6D714B6A704B576D7036697090
:100B700071724B7A744C5732200A74376935757329
:100B80004C44784D584778386A4A79744C54314E01
:100B9000585731396A5A32754869342B546C357557
:100BA000666F3665727838765030396662332B500E
:100BB0006E362F3851414877454141774542415182
:100BC000454241514542200A415141414141414143
:100BD00041414543417751464267634943516F4C18
:100BE0002F38514174524541416745434241514478
:100BF000424163464241514141514A33414145439B
:100C0000417845454253457842684A4255516468A7
:100C100063524D69200A4D6F454946454B526F62FC
:100C2000484243534D7A55764156596E4C5243686B
:100C3000596B4E4F456C3852635947526F6D4A7924
:100C400067704B6A55324E7A67354F6B4E45525539
:100C50005A4853456C4B55315256566C6459575649
:100C6000706A200A5A47566D5A326870616E4E306B
:100C700064585A3365486C36676F4F456859614808
:100C800069496D4B6B704F556C5A61586D4A6D6177
:100C90006F714F6B7061616E714B6D7173724F301C
:100CA00074626133754C6D36777350457863624872
:100CB000200A794D6E4B3074505531646258324E73
:100CC0006E613475506B3565626E364F6E71387675
:100CD0005030396662332B506E362F396F414441A4
:100CE0004D424141495241784541507744392F4B5B
:100CF0004B4B4B414369696967416F6F6F6F200AC6
:100D0000414B4B4132614E31414252526D6A4E412C
:100D10004252526D67484E4142525154526D6741A2
:100D20006F6F6F6F414B4B54645335356F414B4B75
:100D30004B4B414369676E4647614143696B336979
:100D40006C427A514155555A6F7A5141200A555596
:100D500055554146464646414252525251415555DB
:100D600055554146464646414252525251415555CB
:100D70005555414646424F4B614A416141416B5591
:100D80004C31726A2F6A6E3862764466374F6677E6
:100D9000723172786E3475314B48200A532F442BD0
:100DA00068774765356E632F4D65796F693958648B
:100DB000324B71716A6C6D594156382B66384570EB
:100DC000502B43696B332F42512F776A38524E595B
:100DD000764C474453483044784962665437434D13
:100DE0006C704C66545A4949200A7A626D56732FCA
:100DF0004E4B7A704F5749774D3844675674484484
:100E0000314853645A4C335537584D585767716EB3
:100E1000736E757A363142794B517342514F4B2B79
:100E200047662B437A502F42554C78582F7754728F
:100E3000693841322F67200A335366444772366A55
:100E40003473612B6B756C316947655A59496F5022
:100E500049436C52464C4763733072645366756401
:100E60004B4D506835313669705539783171306184
:100E700055484F6578397935334876536873643609
:100E80002F44502F200A41496962766A6A2F414EE9
:100E90004366384B2F2F41414176382F38417058E7
:100EA00058366F2F3841424E62397048785A2B318C
:100EB000332B783334582B496E6A4C54394630768C
:100EC0005676456A335472626158464C46627044A5
:100ED0004863200A79776F64736A753257456537BE
:100EE0004F3467676A70585A6A4D70784F46697018
:100EF000316B6B6E70756332487A436C586C793025
:100F00007A337231356F43357234582F414F4379FC
:100F10002F774477564738572F7744424F636541C0
:100F2000200A4C5877667050686E574E5138566696
:100F3000627072746459676E6B57434B4479416DAC
:100F4000775253786B466D6C624F53667564712BA4
:100F500048662B496D373435442F414A6B2F345640
:100F6000662B41462F2F41504A6C6159584A200A3E
:100F700063585870717254576A3879612B61554BB8
:100F8000552B53623150334D6F72384D2F77446972
:100F90004A772B4F502F516E6643722F414D414C73
:100FA0002F77442B544B502B496E443435663841CF
:100FB000516E6643722F7741762F3841200A354DA6
:100FC00072622F5676486679723730592F323168FF
:100FD000652F3448376C4835667A6F4A7A337238F1
:100FE000352F2B4351482F42576A34706638464498
:100FF000666A33346938502B4B764476676E5339C2
:10100000413048516D3142376A53200A4C57366A95
:1010100075446347654B4F4A435A5A3546326C57BD
:101020006C505450794433727776384161732F3461
:101030004F4A766970384950326C2F4876684C7741
:101040007A34582B4864356F50686658627A523744
:1010500053652B744C795334200A6E57336D6149B4
:1010600075374A63717079554A4746484248577503
:10107000654F53346D565A3055766553753965351D
:10108000744C4D714B70717266526E374844705299
:1010900058345A2F384145546638637638416F5476
:1010A0007668562F3441200A582F3841386D5566DE
:1010B00038524F4878792F3645373456662B41469B
:1010C0002F77442F41435A58522F71336A76355641
:1010D00039364D2F37597733642F63667555443849
:1010E000314B4779612F444D2F7744427A5A386308
:1010F0004E332F49200A6E6643766E2F7077762F17
:101100003841354D723973506872717571617A3832
:101110004F7441764E64687437585737725472650D
:101120005855496F465A595972686F6C4D696F47E7
:101130004C454B484C414173546A47536574634F67
:101140004D79200A327468556E5756722B647A7046
:1011500077324E703132315436473333373045347D
:1011600072503841465069335376416E6836383193
:1011700066577453736449306E54346A4E64586CC5
:1011800037634C62323973673673377551716A331E
:10119000200A4A72382B6632712F2B446A763456F5
:1011A00066434739754E4D2B48756B366838544E3B
:1011B00054684A553353534854394C55394F4A585B
:1011C00052704A4D482B37487449364F5163316A43
:1011D00068734457784575576C4735646646200AEE
:1011E00055714B7655646A3946764D782F53676B47
:1011F000597238442F696E2F414D4847583751581E
:101200006A69346C2F73482F414952447758626E93
:10121000496A466A705175706C482B30317930716B
:10122000736663496F397139572F344A200A482F42
:10123000384142546A396F7A397266397537777234
:101240003452385666454754562F43736B463565BE
:101250006174616A51394E67337852573068516210
:1012600034344664663378687956494F47394B3988
:10127000577477376961564A3171200A6A53555657
:101280006664332F414373634D4D346F7A714B6EF7
:10129000424F372F414B376E374F447052534C7784
:1012A000744A4A4D73534D7A4D71716F797850512C
:1012B000443172776A316831465A662F41416E4730
:1012C000692F384151593076200A2F7741436F2FCB
:1012D0003841476A2F684F4E462F3644476C2F7768
:1012E000446756482F6A51427155566C2F384A78D8
:1012F0006F762F515930762F774B6A2F786F2F7773
:1013000043453430582F414B44476C2F3841675682
:10131000482F41493041200A616C465A662F436389
:10132000614C2F30474E4C2F41504171502F477226
:101330006D6E617261367643306C706351585561E1
:1013400074744C785342314236347950714B414C6D
:10135000464646464142525252514155555A346FC3
:101360007A514168200A36316D2B4B6645326E2B1F
:10137000436644756F6178724639613662704F6CAE
:10138000323733563564334D6F6968746F6B425A28
:1013900033646A7771716F4A4A4A78576930697164
:1013A00075356A6744756531666B462F7755782FBA
:1013B000616F200A2B4A332F414156492B4A643929
:1013C00038452F32654E44316278463444304F36CA
:1013D000387658645A735435646A72463068446289
:1013E0005875574B784A625273506C792F7743394E
:1013F00063626747436F5432594842757655354C9E
:10140000200A326A316236493573566946536A7A20
:1014100057752B69387A35632F344B382F3846523D
:101420004C2F415062372B4B7136526F4D317A5AE7
:101430002F432F77414D7A742F59396F774D626161
:10144000704C7972583079486E6351534555200A73
:101450006A4B497834444D345073482F4141624DB2
:101460002F463576436E37562F6A4C775A4A49498C
:10147000375878643466463269592F316C785A7A15
:10148000416F502B2F64784F66546A365636422B84
:101490007A782F776251526166706365200A7366AD
:1014A000476234695136664367456C7870666837C1
:1014B0006171784C3650647A444150596752455AAC
:1014C000364E3372364B2B45586850396A582F6761
:1014D0006E76346768315477646157656F654C6226
:1014E00046485750556261616656200A7277376BDD
:1014F000614E397370597778376C4A556843674F36
:101500005478796139764E2B49736E776543654619
:1015100055306C6266524B2F6658632B636A477076
:1015200054724C45347561683674666366656F4FF6
:101530003276776F2F774344200A6C50346B6638CD
:101540004A562B33506F65675279626F66432F6836
:101550006533696B51486C4A353570705750347833
:101560006D437631682F5A66384132374E452F61C8
:101570007438646174704F67364C71396E626156AD
:10158000614336653576200A6A456A4D5334554BBA
:1015900045526D50504A7A6E7458344F2F774442FA
:1015A0005854346C66384C582F7743436B487863F3
:1015B000314A5A504D57313174744A544851437925
:1015C0006A5330342F47412F584A4E636642646154
:1015D0006C6A4B2F200A3169684C6D696B3956393A
:1015E00078315A706A615662437164463879622F65
:1015F000492B63674F5030774B2F714B2F59492B35
:1016000048482F437066324B7668543465614C7994
:101610005A744F384B36654C6C6653647264486D2F
:101620002F38200A694D35722B5A2F34466644787C
:1016300076693738622F4276685350647538546142
:10164000375A61534D64663339776B582F73396657
:101650003163577343327345636361716B636168D0
:10166000565652674B414D414376613475726677E9
:10167000200A366665372F516A682B6E38552F6BF6
:101680006668562F77636A2B50702F4758376475FA
:101690006C61484235306C743455384D573045696B
:1016A0004B70594A504E4C4C4F3539695933687A12
:1016B000374B4B2F506165316B7467504D6A200A70
:1016C000655050546370584E6631774D6D546B6A57
:1016D000327A36562B4C2F2F414164422F455664A7
:1016E000522B4F6E7776384143617963364C6F6485
:1016F0007A71374B4F7875357845442F414F536693
:1017000034666A7A5751357735754744200A554E05
:10171000456E7266384134424F613566797157497A
:1017200063766C622F676E3564314A485A7A544A40
:1017300075534B526C7A6A49556B666E2B4E526DDF
:1017400076364F763841676970384D76384168573C
:10175000662F4141544F2B474D45200A6B65793424
:1017600031617A6E3169567359387A375463797AB0
:10177000526E2F76303059794F754D313757625A46
:101780006E395270786E7938312F6C2F6D655A6CC6
:101790002B436549714F4364724879442F77414721
:1017A000316E68655034612F200A424834326645F4
:1017B0006A56495A6F624F4B6132744449793432E8
:1017C0004A5A323831784E6A384A304A2B67723872
:1017D0006B2F46336961353861654B39553169384E
:1017E0004F36383161376C764A794F386B6A6C32D4
:1017F0002F556D763655200A502B43725078462F60
:101800003456502F414D453666692F716D347874CA
:101810004E34666D30744744594B76654662526368
:10182000666A4F44787A3663312F4D2F2F6E705889
:1018300042772F572B73314B754B6B72637A533949
:101840004C49374D200A31702B78684367746244E5
:101850006F594875442B37526E7879646F7A697086
:1018600050374E75502B6665662F414C396D76307A
:10187000702F344E6A5068773274667453664544EC
:1018800078553065364C515044533665474934538A
:101890005336200A755933553537486262535937E4
:1018A0004546712B356648482F425950532F426E9A
:1018B0006A6A5764496A3845336C37487064394EF0
:1018C0005A72634C71536F4A78484955446765575B
:1018D0006342735A786B396570727A654A4F4F4D1F
:1018E000200A4A6B315651784E6C667264367532F6
:1018F000316B6D6350736350536F7872596D7079AB
:101900004B5473744C6E3459667370664369623419
:10191000752F744F2F447A777539724D385069445A
:10192000784A7039684D4447785659354C6D200ACD
:101930004E584A342B36454C452B774E66306D2F2A
:101940007465667464654476324A76677071486A75
:1019500062786C654E425A57763771307449634EDF
:1019600063366E63454570424375526C3277546BF3
:10197000345651437A454145316B6673200A6E2FC8
:101980007459336637543368335564636C384A543A
:1019900065475044396A6C59372B3676684974323A
:1019A00034795832445976796F42792B635A3435F9
:1019B000773250776A2F414F437348376539392B57
:1019C00033662B314271476F5731200A314D3367EF
:1019D00066777A4A4A7033686931355642414741E1
:1019E00065354B2F33356D554F5467454B49313570
:1019F00032317934504752346A715172775671617D
:101A0000586E72393657353674477453776D473987
:101A100072536C7A6332326C200A76773747502BD8
:101A200033782F7741464C50694E2B333934306B25
:101A30006E3852587A61583456745A692B6C2B4759
:101A4000374F56685932616A49563348486E544197
:101A5000486D52786E6C676F5254747235342B3601
:101A60004750346B314A200A59574D327033734E08
:101A700072617779334678634F7363555553466E79
:101A80006B596E415656484A4A50474258374A6643
:101A9000384531762B44664C772F3464384E61627A
:101AA00034792B4F316D32733639644B6C78622B3D
:101AB00046524B55200A73394F48444B4C6F6F6365
:101AC0007A53644D7867694E6551524A6E6A367A28
:101AD00046597A4335645255647579572F39655A9A
:101AE000356C476858786456744F37367673666A33
:101AF0003734583845363134347632746446306A77
:101B0000564E200A59756C473477325671397849E8
:101B1000422F756F43612F55442F67322B2F5A6721
:101B2000385665432F77427062787A34733854653B
:101B3000463965304B50542F4141326D6E326A61E7
:101B40006E7030746F4A5775626848334A35696AF7
:101B5000200A646862596A493642766576313638B9
:101B6000442F4141373048345A6547344E48384E47
:101B7000364A704F673654616A454E6C7031704812
:101B8000613238582B366B59436A38425774356581
:101B900032766B3866784C4C45555A555977200A41
:101BA000736E352F3841392F43354F715652564891
:101BB0004B37524976336138702F6262385A663833
:101BC000494A2B796C343676764D3874704E4C6BAE
:101BD00073304F635961636941592F372B5A2F4333
:101BE00076566C47467235522F774343200A765813
:101BF0006A45364A2B7A66702B6B6F36724A726D65
:101C0000737852757050336F6F30647963657A6999
:101C10005038362B5A5062507A55425054507431D5
:101C200072304477462B797A38512F696434642FA7
:101C300074625176437571616870200A3749307358
:101C4000637137553839564F43597778426B415055
:101C50004879413838646134414E6B6633752F5092
:101C6000317A7A58306E2B7874384E39633864661E
:101C70004658532F47593853365271336944773792
:101C8000477435702F68354E200A58524E54314AE9
:101C9000596B776C7570507952524242686C795327
:101CA0007163624F3441506E5136546544566673C9
:101CB000503261342B336562396E2B7A37473833B3
:101CC0007A4D37646D33476432654D597A6D75715D
:101CD000385266732B65200A4D2F436D6958756F16
:101CE000583268334564767062716C2B456D6A6C4E
:101CF0006C30356D4F464678476A4634636E67658B
:101D0000597135504857766450672F64586C6C5938
:101D10006647373433363170365748695452357018
:101D20004C545459200A4368582B7A7454753569B9
:101D30006A75716E6B5044356967426766764E6EA0
:101D40006F4457542F775478742F37583176347244
:101D5000336D714F30326B2F38414344616A2F61CC
:101D60004A6C4F39584C4E4732577A314F315A44AA
:101D70006B2B200A2F715351443576424A2F38413C
:101D800031312B712F774477544538466638496492
:101D90002B79426F4D724A736D31756534314B55F5
:101DA0005936377043696E385934304E666C51631A
:101DB00034373839442B4E6674663841413777647E
:101DC000200A2F77414B392B4450685451325479B3
:101DD00033306E534C573163663761524B474A3943
:101DE00079774A6F41366D69696967416F6F7A7AB1
:101DF00052514130385530746873633037507A66C9
:101E00006A5868333758333762336833396C200A7D
:101E10006652504A6B4D6573654A3770413972702E
:101E20005563753174684F504D6C624238744F750C
:101E30004D6A4C45454148444563754D786C4C436B
:101E4000306E577279355972646E50697356547793
:101E5000394E316173755649362F3841200A615920
:101E60007466436D71664358554C587878726A6150
:101E70004C34547542356571426272374E2F61455C
:101E80004A7A7574576466336D7951664B56694B5F
:101E90007534796F4F4351666A62346B66384652C7
:101EA0004E452B4748687533384A200A2F426677DB
:101EB0006A705769364870714747326E6C73786242
:101EC0005738532F394D626150626A50584C386B05
:101ED000395637313875664850396F4C78582B3041
:101EE0005234716256764657705064794953494C62
:101EF00064527374724A4363200A3759342B67481B
:101F0000546B2F4D32426B7431725038412F427AEC
:101F1000785A385535764C384F65473961316E35CA
:101F20007468653074486B6A6A502B303447316688
:101F3000784972386F7A626A6E4734742F563872F5
:101F4000546A48756C65200A542B585435616E35B7
:101F50006E6D66466D4A7856543257416A5A6437F8
:101F600058622F794A7669643863764748786B7689
:101F7000354C72784E34693162574A47627A42482A
:101F80004E4B664A6962747469556845366E376FA0
:101F900048667361200A355835534F437058703185
:101FA0003472612F61792B47586962396962775AB7
:101FB0006F757666454451622F53375058727037AB
:101FC000577A574634726952335664787A74666128
:101FD0006D46504159676E42774467342B663953DA
:101FE0002F62200A64384E773267617A307A584A15
:101FF000376A2B354F6B635364442F4748632B6E0E
:102000003850632B677A343247344E34697A483912
:102010003947684B562B72302F4E6E7A4E624C38D1
:1020200066556E657246333839482B4A2B722F2F0E
:10203000200A4141523730613138492F43333468E7
:10204000654D7232525962525A3074704A47365254
:102050004A6251744D357A394A686E2F6446666714
:10206000783439385858487841386461337231359A
:102070007A656135667A36684F6364586C6B200AFE
:102080006152763159312B7850374D5837552B6C7A
:102090007A2F38414243503478654C744E745A4E0E
:1020A0004C7662502B3164467567386F62626558B2
:1020B00045554545547177412F677572666A3147BA
:1020C0004B2F4741644B2F7072773179200A57703C
:1020D0006C2B582B777845655763644772333133DF
:1020E0006578393537503257426F55483056333658
:1020F000335071622F676931384E662B466F6638F0
:10210000464C2F686A6253497A572B6C586B2B7375
:1021100054454C6E5A396C74704A200A6F79665176
:1021200065617361353957486576365146474D5676
:102130002B482F2F4141624B66445676454837580D
:10214000486A62785138653648773334594E716A37
:102150005934696D7572695061632B766C7754449C
:102160004875665376334179200A4F4B7669697218
:102170007A597A6B2F6C532F48552B6D79536E79A2
:1021800034666D377347504836312F4F352F7758A7
:10219000672B49376645502F67707234366957513F
:1021A00054573368324778306545377432416C7222
:1021B000473867397353200A79794448746E7258E6
:1021C0003945544E67312F4B352B316E3853762BB2
:1021D00046782F74522F4558785973676B6A385177
:1021E0002B4A4E51763453446B434F5334646F77CC
:1021F000443341517142374374754536584E694AEC
:1022000054665266200A6D5A5A39552F6452683303
:1022100066354841573044336C78484847706B6B9B
:102220006D5A55565231596B395031722B72763482
:10223000492F443650345466426E776A34586A43A4
:102240002B58346130617A30744D64414949456995
:102250004750200A775776356E7632426668742F7B
:1022600077743339746E34566548576A45317671E0
:1022700048696D772B3072747944416B3653532F14
:102280002B51306238666176366951506C726F340A
:1022900074726539436E3673793466702B374F70BC
:1022A000200A3532507A352F344F535069533368F2
:1022B0004439676577304F4F51724C34743854321B
:1022C0006C713641395959556C75436666456B5585
:1022D0005048715236562B4434347239582F41507D
:1022E00067364D2B4A48326E786E384A6642200A6D
:1022F00038636A41324E6E66367850486E682F4FAA
:10230000654B47496B65336B7A592B7072386F4B4D
:10231000396E68756C79594A53377473382F4F4B3F
:102320006E4E695775316A396C763841673351386A
:102330004F522F445439694834756645200A4B562C
:10234000556A6136316434747A67674E4659326132
:1023500079676B393133584D673439434B353339ED
:10236000697A396B4C5650327450694B5A4C7237FB
:1023700052622B463743587A4E5676397531704340
:1023800065664A6A4F4D47527338200A2F774230AC
:102390004863656F56766F762F676D4C2B7A6C713C
:1023A00046312F775273384C2B4664506E68303369
:1023B0005576484E7063586431637970755649623A
:1023C0007937596C397647342F5A4375426B5A49DD
:1023D00048497A6B66587677200A652B4432692F14
:1023E00041337742592B472F4439734C6654374653
:1023F0004D5A5937704A33504C53534E2F457A48F3
:102400006B6E384141414258343778626B2F3971D5
:102410003577716C622B4842747464333058707035
:102420007162564D6A2B200A74796F65312F687777
:102430005632753737487A332F7741465876487485
:10244000762B79682F774145785069422F7741493B
:10245000334446704F2F54497644326E51323438EB
:1024600076796C753555743332487377696B6B596F
:1024700048726C63200A357A7A5838342F5376368E
:1024800045502B446748777265654A763841676DD9
:10249000663472754C564334305855644F76356CFB
:1024A0004179336C6935534D6B5939504E44453938
:1024B000677050537635372F3664514F316671331C
:1024C000434E200A4F6E4843745258586238724542
:1024D000353370575545724A4C5248336E2F7762E8
:1024E000782F7336615838612F7742754F585839B5
:1024F0005A686A75725834656157327357734C2F36
:1025000041444B3136307152514D562F324E7A790B
:10251000200A41396E524437312B2B5364463971AE
:102520002F6E5A2F34496F2F7472365038417357BB
:10253000667469523358696934577A384A2B4D4C5E
:102540004A7445314B37626C4E4F5A6E563462684E
:102550002B66754B3637575052556B647634200ACC
:1025600063562F5242707571573273616462336CD7
:102570007063513356726452724E444E4334654F09
:10258000574E686C5756687751515151527752588F
:10259000683855527166572B61587732566A314DFB
:1025A0006A6C4432466C766655733055200A68630F
:1025B000413075612B64506143767A372F344C4E2D
:1025C0002B4D7674506A7A7758346644664C59328B
:1025D000452B6F4F76723530676A422F4479472F0B
:1025E0004F7630457A5835522F38464D6647593820
:1025F000582F414C595069524562200A64446F3843
:10260000647670385A427A677045476365337A75E5
:1026100034782B50576744797234522F4436312B1B
:102620004B486A654852727A78446F2F686C6269C9
:102630004F51783375707559375979685355526EC3
:102640004833647A41446354200A67446E6E37709D
:10265000394A2B444F695733374B2F77415A644FD0
:102660003856654B4E63304B34486831336E677370
:102670004E4631534855726E555A4E724B694178E9
:102680004630695173774C4E495649424F46596B13
:102690004375482B4766200A77586D386453364B8C
:1026A0003131645457466E34693155614C70356729
:1026B000747674453933634859474B6F58516245B6
:1026C0003832506378635938785141337A59373703
:1026D0003455667339576C784A6F636B6C35346365
:1026E00031697838200A5765495A2F443973622B6B
:1026F000317569305A69614D4356466A6C6A4C625D
:10270000764E44747A7456597A6C2B53724147351D
:10271000344F2B4D556678302B41587861384D3306
:10272000313770656D2B4B66464776522B4A374FD3
:102730004335200A7555745962316D6B56706F556B
:102740006C6B4B71475656425657494C41385A505C
:1027500054456938635750374F58374D2B76654588
:10276000374855644E314C78743851704931315A7C
:1027700039507545756F644A302B504F49504F6A38
:10278000200A4A6A6157526D634D71735146624225
:1027900077514B354C77662B7A7733695455744AA9
:1027A000735A745968733737784A613364356F796F
:1027B0006D3333706352572F6E596B6D62634443B0
:1027C0006B6A514F716B427A38704A554C67200AD8
:1027D00074682B5050685333772F384143756833F2
:1027E00074336458456C357274744866573859743C
:1027F0006639476C676B5463476A6E444865366355
:102800004A496D31536A676A35735A6F415067445C
:10281000344D2F345746386366434F68200A757528
:102820003650564E597472655545663873326C5839
:10283000662B535A723971712F4B332F676C7A3470
:102840004D486976384161393061345A664D693096
:102850004B7A7564525966776A3933354B6E38470F
:102860006C58394B2F564B67416F200A6F6F6F4181
:10287000516E46495778536B316D654B74586B30C8
:1028800044772F65586B64744E65793238624F6CAB
:10289000764350336B37592B56467A786C6A675AB1
:1028A0004F414D354A4179616D54736D324B5473CC
:1028B000726E692F37633337200A5A6C682B79742C
:1028C0003449574B7A2B7A3333693756314930368E
:1028D0007A633557466568754A51503446504147CA
:1028E000515862675941597238572F423739673703
:1028F000346F66746565497050466E695361625203
:10290000374C574A6674200A4D2B71367372473420
:1029100075383447364B44495A687478747955543D
:102920006141464F4142583268384A66324C375A04
:102930002F694E65664554346974612B4A76477534
:10294000705443614B466C3879783052522F713451
:102950006F465966200A4D5547414A47414F526BD1
:1029600041456C6D393453504859446A6F4B2B5272
:102970007847517A7A537637624D472F5A723459D5
:102980004C38356562387676506D63526B39544DEC
:102990004B76744D6137515730462B6266643976F9
:1029A0007850200A6E2F344A2F7744424E483459CB
:1029B0002F423451334D326D4E346E314F50422BD5
:1029C000316176695A51324F537351416A4873539A
:1029D00070596633713938734E4D74394C744934BB
:1029E0006265474B33676855496B63614255514493
:1029F000200A674141644142566852696764612B0D
:102A000069776558346243773563504252586B6A30
:102A1000334D4C676350686F386C434369764A485E
:102A2000772F2F7741484358776F2F7743466B6650
:102A30003841424E76573953566D38377756200A0B
:102A400072466872614971376D6B426B2B794F50DA
:102A500059424C703250736C667A38347858395613
:102A600058375566776E5078342F5A7438666543F8
:102A700030574D7A654B664439397063426B414B30
:102A8000787979774F6B6238385A5679200A7241D3
:102A9000396942583834582F44746A396F492F774E
:102AA000444E462F69582F7743452F632F2F4142BD
:102AB00046666F33432B4E70776F7970314A4A57B1
:102AC000656C333350437A7244796C5655344B2BD2
:102AD0006E516E2B466E3755502F200A4141673399
:102AE00037425078612B46306C7863627647757553
:102AF000364A655773494879424944504C634D53AF
:102B000065684C525751487274487058685A34720C
:102B10003343332F414F43614837516C334D736119
:102B20002F426E346A686D36200A6239426E5666EC
:102B3000784C4B414B7666384F7366326969662B29
:102B4000534F654F762F4141584E583046504559A6
:102B5000536D32347A58764F2B36504A6C52727914
:102B6000736E46364B327837422F7754772F622F69
:102B700030332F676E56200A2B787238534E5930F7
:102B800058374C662F464C346861764470576A5704
:102B9000636733725951577342593373792F3841F0
:102BA000504D50647345582F414A614F434F516A0D
:102BB0006B6341502B437A2F414F30396A6A34742A
:102BC000617A6A2F200A414B3872502F347A58505C
:102BD00066384F736632697638416F6A6E6A762F4F
:102BE00077584E2F6B2F792F6C522F77414F7350A0
:102BF00032692F77446F6A666A722F7741467A5638
:102C00007A527035647A7971564847546B37363248
:102C10006670200A7562382B4C555647436153390C
:102C2000543955762B4361763758587849385A6667
:102C30003845716669313857766952346F76504538
:102C4000577161542F6245326C5458435251464972
:102C5000625777526B56664C52526C726779414894
:102C6000200A4250546B394B2F432F4F612F634C36
:102C7000562F32582F6946384C502B446671332BEF
:102C8000476569654574617650694272566E47744E
:102C900031705674626C72754A726E552F74457736
:102CA00064657857417370394D562B58662F200A4A
:102CB000414136772F614C7A2F77416B62386466D9
:102CC0002B433171344D6D723465453630323146A7
:102CD0004F576D7132523035685472536A54685A86
:102CE0007470612B7037482F414D473950777A2FD8
:102CF000414F45392F7743436B576A61200A6B3048
:102D0000666D522B454E473144567A6E6F70614D59
:102D100057696B2F6A646A4876394B2F6F46336365
:102D20004436312B57662F4276482B7842342B2F6E
:102D30005A7A38632F457A784A385150423273654F
:102D400045377135734C4C54644D200A47705733E6
:102D50006C50636F306B73732B7A7667474F4450B8
:102D60007153505376314A4C63667278587A66458F
:102D700057496A57786A6348644A4A6148745A50A6
:102D800052645044726D566D32667A392F774442E0
:102D9000776E38532F774468200A50503841677057
:102DA00052726D6E71345A50434F6A616670436B54
:102DB0005A344A694E3077394F4464483851612B50
:102DC00049646D34652B4D6744302F7741697674C3
:102DD0004839756239677A396F5434372F746A66A7
:102DE000457A78665A2F200A435078786561667272
:102DF00066694F396D734A6C3039697374714A571B
:102E00005342767869574F764B782F7753782F61F6
:102E10004B482F4E472F4858622F6D484E322F7A1D
:102E20002B4666613566694D505477734B66744620
:102E30006F6B7430200A664E34716A576E576C4C53
:102E40006C6572374830332B32502F7741466D50C6
:102E500045337770384D2B4276684A384266455480
:102E6000614C6F50773130617A30692B3851573867
:102E7000454D7A617A635739756B4C43457572726B
:102E8000396E200A5861666D417A49784C41375154
:102E9000706677556638466E76326E762B69746149
:102EA0007A36663865646E2F41504761353466382E
:102EB00045722F32696C482F4143527678312F3456
:102EC0004C576F482F424B37396F7552397638411E
:102ED000200A77707A78786C75506D30396C482B91
:102EE000656179705573737077732B563962364EFE
:102EF0007371565447536C727A4C7461352B357626
:102F00003747766866562F7742724C2F676C2F775B
:102F10004347645038416978714631346C76200AF1
:102F20002F695034626E4F7258637170464E504232
:102F300065475634694E6968564B51795268534615
:102F4000794E6F50586D7677492F62482F5A4A381C
:102F5000566673552F4866562F412F6971326B574D
:102F600053786B615377766768454771200A3270F2
:102F70004A3871356950544441636A4A32746C541A
:102F800067676976366250677838506F2F684E38B9
:102F9000482F41416E34567438434477316F317055
:102FA000704D654F797751704550305775482F6295
:102FB000472F5966384168372B33200A4E384E2F39
:102FC0002B45623865615239702B7A376E302F5538
:102FD000725A684666365849777758676C775375E2
:102FE00063444B6B4657774D716344487965573559
:102FF000783955727A7576636B3975336178373203
:103000004D79373239474B76200A377957352F4C6F
:10301000754F6E6F7134352F722F41457966303799
:103020002B396673776638464E506A622B782F705C
:1030300030576E65436648476F572B687737697519
:103040006B5830615874676D6553456A6C446556BA
:103050006B354A387372200A6B386E715258304C97
:103060002B31642F7762762F41426D2B444F71587C
:10307000563534444E6A38545044366C6D6A61316A
:103080006B53303153464D663874494A4743735247
:1030900030486C4F35627274587058783534312F1F
:1030A0005A612B4A200A6E77337648742F45487749
:1030B000373863614A4E4831572B304F35673439C2
:1030C0005275546B65344A48765833456356677376
:1030D0005A47334D704C732B6E795A3832364F4AFB
:1030E0006F5476716E2F4146315239392F736E66A7
:1030F0003841200A42636E396F623970583971481D
:1031000034622B425A707643466E5A2B4976454EAE
:103110006C5A583874706F2B4A6D74576D547A79A5
:1031200043377341336C43513541474F31667466C1
:103130003248307238422F2B43422F374F2B752B9A
:10314000200A49503841676F6C3462317A556442C5
:10315000316132307A777270392F71526E75624BED
:10316000534F457947453236446377413342726A5B
:1031700049414F666C72392B4635723458694B6E33
:103180005170346855364353535854716654200A6D
:103190005A504B724B6B35566437686B494F7648C3
:1031A0005776784E2B4D586A492F455434732B4A25
:1031B0007465335A477361706333715937423557B9
:1031C0005A522B52417239727279796A7672575318
:1031D00047525330557946484159726B200A486727
:1031E0006A49354858714F6138562F7743486350C4
:1031F0007758502F4D6B776638416778752F2F6A57
:103200007465436573666E4438502F7742702F574C
:10321000766878705868693373644E3057536277B4
:103220006C63334E7A5A584D7363200A6E6E455460
:1032300062533862454F42734C4B704A554B35418F
:1032400032377475564E5051503268395738506184
:10325000393462766F645030646C384B7758634E03
:1032600070626D4B5259574E7930377449774467C5
:1032700037314D2F7937536F200A41696A34344F03
:1032800037394B76384168334238467638416F5388
:1032900059662F426A65662F4861502B486348770C
:1032A000572F36456D482F7741474E352F38646F7D
:1032B000412F4E47372F414767645775644A302B7B
:1032C0004E6250537266200A55744E307154524902
:1032D00064556869644C6862535179466B43682F42
:1032E0004B556C5A705939796F47434E67644D316D
:1032F0006E2B5066697464654F644A74644E6A73D9
:103300004E503058534C53366D766F745073504E48
:103310002B7A7854200A7A4C47736A714A5A484B80
:1033200037764B58355649566563415A723950764F
:10333000384168334238467638416F5359662F42D8
:103340006A65662F4861502B48634877572F36458A
:103350006D482F7741474E352F38646F412B646697
:103360003841200A676A4A344F383778483434384D
:10337000514D71673239746232455448722B385A54
:1033800033666E302F64526B2F5556393943755161
:103390002B4548774A384B2F4158527272542F436D
:1033A000576B7836505A33732F77426F6D6A576177
:1033B000200A5362664A7443357A497A486F414D10
:1033C0005A7858586A70514155555555414E59389B
:1033D000567866786D2F614938432F733761506195
:1033E0003668343638576148345473723659323936
:1033F00074507164326C756B306758635655200A8F
:1034000073655346476365677274534D3138786608
:103410003846637932722F735A582F6861484231A7
:1034200044346861396F76685730474D376D753968
:103430005374306452794F73516B485556705268CB
:1034400047633147526E556B3478756A200A336A88
:103450003455664748777238632F43456669447729
:103460006672326D654A4E456D6B65474F2B302B4A
:103470005954514F364844414F4F43516544546667
:1034800068643859504476786F304F383154773308
:103490007148396F324F6E366C64200A36544E4E86
:1034A00035456B536935745A6D686D51623155738A
:1034B000466B526875584B6E4751534F612B4866A7
:1034C000422F78622B495878612F6134385861391E
:1034D000443430742F4333685034582B4E373353B1
:1034E00035744B2F34534259200A593772534E4F7B
:1034F000736E4D39736D6C69504D3038386D5A6A42
:103500006353766849774E677774654A2F424478EB
:103510006C385476477677312B4858777A38486537
:103520004D4C6277655A66682B6E6A4C2B30573863
:1035300054726F674F71200A3678716C334E39724E
:103540006B7847386C3546426770396E5542576B19
:103550006C4963384C6A762F414C4E76657A38391F
:10356000396B63636362746448363535464B635622
:103570002B6348784A2F616B3858576677392F612B
:10358000412B4A45200A50784D766F2F476E773988
:1035900038537A2B434E43384F4C6652572B6C3678
:1035A00054617263326D6D747174785A592F654E1F
:1035B000357479397A356B705A4678476F49554575
:1035C000566E5166465878386E7857316234656564
:1035D0004266200A697834763851654739512B4A5A
:1035E0002F683377317066696136766B314B376A95
:1035F0004B365863583274724850744B5349676A5B
:1036000068486C6E63694F5755714679446B7376A1
:10361000622B3076783876387A54363748737A3970
:10362000200A4C484862314E4F4F30697679312B31
:10363000472F3751487846384132586776786C4E74
:10364000385366475776365063572F774152745533
:103650006830362F76426352536146704564797400
:103660006F3035326870726A3753304C435A200AD3
:103670006A6E594652634B43476838552F746B2B1B
:10368000504C333455505A2B4666694671757261F9
:10369000356F48776A384D36666433634E365A6BF9
:1036A0006D38543635715672483572534C6B4E4CEA
:1036B00046447677636E416478797938200A5538C4
:1036C000746E30615A4B783065715030772B4B6E89
:1036D00078573850384177553844335869547852C0
:1036E0007155656B36485979517854585452504940
:1036F00049326D6D5347496255444D64306B694C96
:10370000774F7264685851343572200A38344C6EE1
:10371000783938514E492B4B756F65473750346AAD
:103720002B4F74617359506A706F666879326D6D92
:1037300076464E7863525261517439724D4C6246EE
:103740005543423850694A634A47537541426B5664
:1037500054384C2F414C5457200A75654D503261F6
:103760002F682F77434F4A766A4271646A34692B17
:103770004F336A4331305878444A46725550396E57
:103780002B424E4F6B65387544446151734E6C70DB
:1037900063665A375479424C49432B3475354A494C
:1037A00079482F5A3074200A4C53434F4F543648AF
:1037B0003656626C59567A33687A34732B486646AB
:1037C00076784138536546644F314F4F36312F7705
:1037D000694C56745874466A634E5A433552704960
:1037E0004D7356436E656973634B546A484F4D6918
:1037F000767A6D2F200A5A312B4F657666467A7895
:10380000463450384436683858764732692F442F4A
:10381000786E34673857367459612F6436304C6689
:10382000574E54302B77756F4C477773497232522D
:103830006434792F6D7A4F42383766647A6A494E1C
:103840003950200A6A33346B76766A58656543745A
:10385000572B4B5069587733344438546646507868
:103860005059334F757A3678396E764E503037521C
:103870004C43427A5A573930342F644C4C65535379
:10388000354B346279345741624F6158396E7954FF
:10389000200A7333352F31702B41665856613652EA
:1038A0002B6C5A43687533547653384164612F4A00
:1038B0006850326C50697834792F5A336D763957A5
:1038C0002B4A486A4C526258775838474E513857FD
:1038D0003346316254433376745575726E56200AFE
:1038E0004C7550517A504A7379476132743764335A
:1038F00059414D34596735456A3539552B48337828
:103900004E2B4D4878342F61746E73377A7831447A
:103910003455682B4733694852644F7637653438DD
:10392000534A5952334676425977584F200A7042CB
:10393000394F564362743774704A51736B6A4B6BDC
:103940005349436D4756736E396D7A747A63797350
:10395000672B757876617A50305334782F54326FF4
:10396000786B2F7058796E2F77544C3866367834D0
:1039700074767669707076697A78200A4C726E690E
:103980006A786C345A312F374A71742B6457462F3A
:103990006F4E7A484B4A4C6D316B303555776B43DF
:1039A0002F5A356F316549444B6D4E64334F613446
:1039B000542F676D4438596648333752486A693323
:1039C000545850456D743332200A6C664366546413
:1039D00054305458667445354C6174727332723386
:1039E000536F4A6A306B2B7A574E74435144304EB2
:1039F000346848544E597977637665642F687466E5
:103A0000356D7363516D6F36626E31667158375321
:103A10002F772F774249200A2B4D6472384F352F6C
:103A200046326872343476553378614B4C6B4E6550
:103A3000456557306F33494D6C5359305A77477746
:103A4000575653526B56712F4362347665472F6A2F
:103A50007038506450385665453956673172773939
:103A600071776B4E200A7065784979787A694F5280
:103A70006F6E77484150446F7735486230723461D9
:103A80002B4A507862682F5A662F41476F2F6A562B
:103A9000612B462F46576D2B4B4E412B4B506737B2
:103AA000572F47326F796156656F32722B437237E9
:103AB000544C200A4A59537A536F5741686C4956FF
:103AC000496777444A4B70412B36532F5061463833
:103AD00059664748772B385765464966486E6A37B6
:103AE000786A7130656F66427839593038614C3484
:103AF0006845636D6E61706161544A63616D3270D7
:103B0000200A57362F4D3774353862777A506C5506
:103B10005A49314335726F57413574597670314D7A
:103B20006E69326E716A3948644338526166346E28
:103B30003039627A5462367A31437A5A336957653A
:103B4000326D576149756A6D4E31334B534D200AC2
:103B50007136737048554D70423542713236382F88
:103B600058384B2F4A62346133586A7653766878F6
:103B7000384B66684234482B4946337043332F77BD
:103B80007469386379367264654D2F374B6A6731D3
:103B90006255707A43474D3231354A72200A61319D
:103BA0006B53566A61786742355A766E506176512A
:103BB000506956342F2B4C586A48347736672B6C33
:103BC000664662785870702F3458426F33773430BD
:103BD000694777387462584D576C52507139314A81
:103BE00041564B794B646B736978200A6E39326A9F
:103BF0006875435343442B7A6E665353425931667A
:103C000079732F5373507548306F44382F7058357F
:103C10005A575837552F694B44777A622B462F45B0
:103C20004878543859614C344A74376E787A346A1B
:103C300069316C7457386E58200A746273644E315F
:103C400048374870326E78336A715A4E37536D5127
:103C5000345162334371677742672B672F73762F36
:103C6000466E78744A386350326264503841483343
:103C70006A62784A3467747648666753337562536C
:103C8000445474644555200A6C76724B57306D6FFE
:103C90007A6E56625A63504E484A615352424759AF
:103CA00073716D4C4258357439544C4C5A52584DBE
:103CB00032676A6A45336178396F2F4750397033FC
:103CC0003466384137503841666156612B4E504654
:103CD00032682B48200A62765848387577743779ED
:103CE000354354585A79464F78426C694157554686
:103CF00073594259416E6B56592B4D3337512F67CB
:103D000062396E66536250555048586972512F435C
:103D1000646A667A665A726166564C704C654F6189
:103D20005442200A4F7853335673416E46664D769F
:103D300037596E6A4B332B424837657677792B4972
:103D400033683778423464316A584E636C732F6835
:103D50006A3467384A537A6F326F66596275352B09
:103D60003070643234424C78504557456B67594245
:103D7000200A4869436B6C634B61353739734434AF
:103D800030326678662F4147306667486465412F58
:103D900069563850744474744338503639347274E8
:103DA0007465316A5A666152634362794E4F514C71
:103DB000747549643759653555596B424747200A30
:103DC0004F44744F4654776B5A4B463732616266A4
:103DD000792B582B5A553851316533632B32664253
:103DE000506A50536669503455302F5874437637B3
:103DF00050567448316142626D7A766256784A4410
:103E000063784D4D71364E304B6B5949200A493617
:103E100031724B66787244384965504E4638627646
:103E200071567670657336587246316F4632644DFE
:103E30003152624F5A5A507356326971377779410D
:103E40004537484164535550493343747766642F6E
:103E500038417231775356746A71200A6A35447159
:103E60004B42306F6F4B4369696967416F6F6F6F8A
:103E7000414B4B4B4B41436969696741724F313349
:103E8000776E7076696A374A2F61576E324F6F438B
:103E9000777555766255584D43792F5A7030356A8B
:103EA0006C546344746B5850200A44444248596926
:103EB0007447696A594E7A6B7A38432F426A654F64
:103EC000726E7851336848777533696538694D4546
:103ED0002B726E533444667A526C4E685270396E4F
:103EE0006D4D70516C6345343238644B71742B7A6C
:103EF00064385070463020202020202020202020B0
:103F000020202020202020202020200A6264344409
:103F10003846735044716C644A4230573278705955
:103F20004C463851664A2B36473437766B787A7A66
:103F3000317274714B726D6C334A396E48736376AB
:103F4000632F4258776864367A72476F792B4666DA
:103F500044636D6F65496266200A374A7174792B34
:103F60006D776D62556F65423555373764307159DD
:103F70004147317952774F4B6C384F2F435077740C
:103F800034523037534C505366445068375337548B
:103F9000772B3779615A4261616646444870724FA7
:103FA000724935685656200A416A4C4B7A4B537514
:103FB0004D686944314E644852527A533768797873
:103FC00037484F3248776E384D3658426277323331
:103FD0006833516265477A7470624B33534B77692B
:103FE00056594C65556870595541554259334942A7
:103FF0005A527778200A414A796171364E38432FF8
:10400000426E687A546F6250542F41416A3458733B
:104010006257334D445251322B6C775252786D4374
:1040200052355953717167414D636B6A756D4238F2
:10403000724F7847435458575555633075342B5653
:10404000646A200A42682B475068323231464C7904
:10405000505164466A7649377954556B6E57796A80
:104060005752627152504C6B6E44626369566B2BAF
:1040700055766E6356344A49724A50374F66772FE9
:1040800062544E51736A34463848477A3161375723
:10409000200A2F7672662B78726679377934556CE0
:1040A0006C6D6B585A683541535348594667536590
:1040B000613753696A6D6C3346797837484B36748B
:1040C00038442F4276694331303244555043666854
:1040D0006D2B683065366139302B4F665334200ABA
:1040E0004A457362686E33764C4547552B58497A7A
:1040F0006B735758424C484F63307A784638422F9A
:104100004250692F5150374B3162776634563154E3
:1041100054507472616B4C4F37306D436533463089
:104120007A466D6E324D68587A537A4D200A532B79
:104130004E784C453579613632696A6D6C33446C22
:104140005859352F5650685A346231746234586E5B
:10415000682F51377A2B30344972613845316A46BD
:104160004A397369694A614B4F544B6E63714D53C1
:10417000564279464A4A417A5654200A5576675A39
:10418000344D316A786F3369533838492B4762763A
:104190007845305A6862564A744C6765394B4644D4
:1041A00048734D785176744B45726A4F4E7049365C
:1041B000635631644648504C75484A4873636646B6
:1041C000384972507752384D200A745138502F4474
:1041D0002B32304877484C635279477A6C734E489B
:1041E000692B793263376A486E473358596A6B6373
:1041F0004842497A6A6B316D6673302F7336615865
:104200002B7A4E384C496644656D334E787156783A
:10421000506454366E71200A7570335155584F737F
:104220006168634F5A4C69376C326A472B52324A85
:10423000774F46554B6F3455563648525237535682
:10424000725844326362334F503054396E2F774C7A
:10425000346374746167302F775834537349504511
:10426000616C4E56200A6A74744974346B3152542E
:104270006E496E436F424C6E633333383954366D3A
:10428000724F6E2F4266776A704776366E71317064
:104290003456384E327571613142396D3143386868
:1042A0003032464A37364C41585A4B345864497577
:1042B0004142200A6869526743756E6F6F357064BA
:1042C000773549396A683733396D663464366C5AE4
:1042D000364C623348674C775863572F6873736462
:1042E00049696C305332644E4B334E7562374F70B0
:1042F0005445575479646D4D6E6E72573344384D42
:10430000200A2F44317463787A5261446F736330AA
:1043100064394A71614F746C474753376B42575346
:104320003442322F3631315A677A2F65594D515404
:104330007A573752527A533768797837484A336612
:10434000774C384733317470734D33685077200A97
:10435000784E446F727A536166484A7063444C5990
:10436000744E6B7974454E6D4979354A33466362B4
:10437000736E4F63314A6F50775638482B46664606
:1043800030336944532F437668765474657562649C
:104390004C53625572585449596279572020202055
:1043A00020202020202020200A46465645696156BC
:1043B00056446C465645554B54674251426A4172C9
:1043C000714B4B4F5A32746346546974556A6D5938
:1043D000766735345568386679654C45384D2B48D5
:1043E0006B3855544A35636D734C703049314231E6
:1043F00032684E706E200A322B595274415847630E
:104400005941474D566E61702B7A5A385064636932
:10441000734937337748344C7534394A694676598D
:10442000704E6F747449746E46754C624977552BA3
:1044300052647A4D647134475354334E6476525209
:104440007A533720202020202020202020202020C8
:10445000202020202020202020202020202020205C
:10446000200A6879523747666F336866542F414196
:104470003639342B6E366659324D6D705844586457
:104480003431764173527570694655795362514E95
:10449000376C5655466A79516F4851566F41596F7E
:1044A0006F7153676F6F6F6F414B4B4B4B412020C8
:1044B00020202020202020202020202020202020FC
:1044C00020202020202020202020202020202020EC
:1044D00020202020202020202020202020202020DC
:1044E00020202020202020202020202020202020CC
:1044F000202020202020202020200A43696969678D
:10450000416F6F6F6F414B4B4B4B4143696969671B
:10451000416F6F6F6F414B4B4B4B4143696969670B
:10452000416F6F6F6F414B4B4B4B414369696967FB
:10453000416F6F6F6F414B4B4B4B414369696967EB
:10454000416F6F6F6F414B202020202020202020C2
:10455000202020202020202020202020202020205B
:10456000202020202020202020202020200A4B4B0B
:104570004B414369696967416F6F6F6F414B4B4BAB
:104580004B414369696967416F6F6F6F414B4B4B9B
:104590004B41502F2F5A223C2F703E200A3C666F11
:1045A000726D206D6574686F643D22706F73742244
:1045B00020616374696F6E3D222F6C6F67696E2294
:1045C0003E2020202020200A3C696E7075742074E3
:1045D0007970653D2268696464656E22206E616D44
:1045E000653D22616374696F6E222076616C75652A
:1045F0003D226C6F67696E223E2020202020202003
:1046000020202020202020202020202020202020AA
:1046100020200A3C696E70757420747970653D22A3
:1046200068696464656E22206E616D653D2268690B
:104630006465222076616C75653D22223E20202033
:10464000202020202020202020202020202020206A
:10465000202020202020202020202020202020205A
:104660002020202020202020202020200A3C7461AF
:10467000626C6520636C6173733D2763656E74655E
:1046800072273E20202020202020202020202020B3
:10469000202020202020202020202020202020201A
:1046A000202020202020202020202020202020200A
:1046B00020202020202020202020202020202020FA
:1046C00020202020202020202020202020202020EA
:1046D00020202020202020202020202020202020DA
:1046E00020202020202020202020202020202020CA
:1046F00020202020202020202020202020202020BA
:1047000020202020202020202020202020202020A9
:104710002020202020202020202020202020202099
:10472000202020202020200A3C74723E3C74643EED
:104730005573756172696F3A3C2F74643E3C7464C2
:104740003E3C696E70757420747970653D227465A5
:10475000787422206E616D653D2275736572223E0C
:104760003C2F74643E3C2F74723E200A3C74723EAF
:104770003C74643E436C6176653A3C2F74643E3C05
:1047800074643E3C696E70757420747970653D2266
:1047900070617373776F726422206E616D653D2264
:1047A00070617373223E3C2F74643E3C2F74723EE2
:1047B00020200A3C74723E3C74643E266E62737024
:1047C0003B3C2F74643E3C74643E3C696E7075746F
:1047D00020747970653D227375626D69742220764C
:1047E000616C75653D22436F6E6669726D61722200
:1047F0003E3C2F74643E3C2F74723E2020202020CB
:1048000020202020202020202020202020202020A8
:104810002020202020202020202020202020202098
:104820002020202020202020202020202020202088
:104830002020202020202020202020202020202078
:104840002020202020202020202020202020202068
:104850002020202020202020202020202020202058
:1048600020202020202020200A3C74723E3C7464CA
:1048700020636F6C7370616E3D323E266E627370A2
:104880003B3C2F74643E3C2F74723E20202020203D
:104890002020202020202020202020202020202018
:1048A0002020202020202020202020202020202008
:1048B00020202020202020202020202020202020F8
:1048C00020202020202020202020202020202020E8
:1048D0000A3C2F7461626C653E202020202020203D
:1048E00020202020202020202020202020202020C8
:1048F00020202020202020202020202020202020B8
:1049000020202020202020202020202020202020A7
:104910002020202020202020202020202020202097
:104920002020202020202020202020202020202087
:104930002020202020202020202020202020202077
:10494000200A3C2F666F726D3E20200A3C2F64695E
:10495000763E3C2F6469763E3C2F6469763E20208B
:104960002020202020202020202020202020202047
:104970002020202020202020202020202020202037
:104980002020202020202020202020202020202027
:104990002020202020202020202020202020202017
:1049A0002020202020202020202020200A0020203D
:1049B0000A3C21444F43545950452068746D6C3E65
:1049C000200A3C68746D6C206C616E673D226573D3
:1049D000223E200A3C6D65746120636861727365D4
:1049E000743D225554462D38223E200A3C6D657494
:1049F00061206E616D653D224D6F62696C654F701F
:104A000074696D697A65642220636F6E74656E7473
:104A10003D22776964746822202F3E200A3C6D6530
:104A20007461206E616D653D2248616E6468656CDD
:104A300064467269656E646C792220636F6E74657A
:104A40006E743D227472756522202F3E200A3C6DE3
:104A5000657461206E616D653D2276696577706F62
:104A600072742220636F6E74656E743D2277696480
:104A700074683D6465766963652D77696474682C34
:104A800020696E697469616C2D7363616C653D3179
:104A9000223E200A3C48544D4C3E3C424F44592053
:104AA0004247434F4C4F523D2346464646464620DA
:104AB000544558543D233030303030303E20202093
:104AC00020202020202020202020202020202020E6
:104AD00020202020202020202020202020202020D6
:104AE00020200A3C503E2020202020202020202072
:104AF00020202020202020202020202020202020B6
:104B000020202020202020202020202020202020A5
:104B10002020202020202020202020202020202095
:104B20002020202020202020202020202020202085
:104B30002020202020202020202020202020202075
:104B40002020202020202020202020202020202065
:104B50002020202020200A3C503E3C412048524545
:104B6000463D222F6C65637475726173223E3C4230
:104B7000523E3C63656E7465723E3C48323E4C4F1B
:104B800047494E3C2F48323E3C2F43454E544552F8
:104B90003E3C2F413E20202020202020202020208D
:104BA0002020202020202020202020202020202005
:104BB00020202020202020202020202020202020F5
:104BC00020202020202020202020202020202020E5
:104BD0002020202020202020202020200A3C2F429E
:104BE0004F44593E3C2F48544D4C3E200A00200A69
:104BF0003C21444F43545950452068746D6C3E200D
:104C00000A3C68746D6C206C616E673D226573228E
:104C10003E200A3C6D65746120636861727365743F
:104C20003D225554462D38223E200A3C6D65746164
:104C3000206E616D653D224D6F62696C654F7074C9
:104C4000696D697A65642220636F6E74656E743D68
:104C500022776964746822202F3E200A3C6D6574B7
:104C600061206E616D653D2248616E6468656C64AB
:104C7000467269656E646C792220636F6E74656E2E
:104C8000743D227472756522202F3E200A3C6D65AA
:104C90007461206E616D653D2276696577706F7213
:104CA000742220636F6E74656E743D22776964743C
:104CB000683D6465766963652D77696474682C2046
:104CC000696E697469616C2D7363616C653D312235
:104CD0003E200A2020203C7469746C653E416C744F
:104CE000656320532E452E3C2F7469746C653E20FD
:104CF00020202020202020202020202020202020B4
:104D000020202020202020202020202020202020A3
:104D10002020202020202020202020202020202093
:104D20002020202020202020202020202020202083
:104D30002020202020202020202020202020202073
:104D40002020202020202020202020202020202063
:104D5000202020202020202020202020200A3C620B
:104D60006F6479204247434F4C4F523D23373143C4
:104D7000374345205354594C453D226261636B676C
:104D8000726F756E642D636F6C6F723A20233731CA
:104D9000433743453B223E3C2F626F64793E200AF5
:104DA0003C6D657461206E616D653D2247454E45E1
:104DB0005241544F522220636F6E74656E743D22CF
:104DC000416C74656320532E452E28687474703AC4
:104DD0002F2F7777772E616C7465632E636F6D2E3E
:104DE000617229223E200A3C6D65746120687474EA
:104DF000702D65717569763D22726566726573689E
:104E000022636F6E74656E743D2233303B75726C35
:104E10003D2F2F7777772E676F6F676C652E636FE7
:104E20006D2E6172223E200A3C7469746C653E509E
:104E30006F77657220646973747269627574696FE3
:104E40006E20756E69743C2F7469746C653E202009
:104E50002020202020202020202020202020202052
:104E6000202020202020202020202020200A3C64F8
:104E70006976207374796C653D22746578742D6150
:104E80006C69676E3A2063656E7465723B223E20E2
:104E90000A3C646976207374796C653D22626F7890
:104EA0002D73697A696E673A20626F726465722D3C
:104EB000626F783B20646973706C61793A20696E27
:104EC0006C696E652D626C6F636B3B2077696474EF
:104ED000683A206175746F3B206D61782D77696445
:104EE00074683A206175746F3B206261636B67720E
:104EF0006F756E642D636F6C6F723A202346464661
:104F00004646463B20626F726465723A2032707882
:104F100020736F6C696420233033363141383B2075
:104F2000626F726465722D7261646975733A2035BF
:104F300070783B20626F782D736861646F773A20D8
:104F400030707820307078203870782023303336F5
:104F50003141383B206D617267696E3A206175742A
:104F60006F206175746F206175746F3B223E200A5B
:104F70003C646976207374796C653D226261636B71
:104F800067726F756E643A20233033363141383B97
:104F900020626F726465722D7261646975733A2064
:104FA0003570782035707820307078203070783BFC
:104FB0002070616464696E673A20313570783B22F5
:104FC0003E3C7370616E207374796C653D22666F30
:104FD0006E742D66616D696C793A207665726461D4
:104FE0006E612C617269616C3B20636F6C6F723A09
:104FF00020234434443444343B20666F6E742D7354
:10500000697A653A20312E3030656D3B20666F6ECF
:10501000742D7765696768743A626F6C643B223EF1
:1050200052656D6F746520456D62656420536572CD
:1050300076657220416C7465633C2F7370616E3EBF
:105040003C2F6469763E2020202020202020202034
:105050000A3C646976207374796C653D22626163F1
:105060006B67726F756E643A203B2070616464698F
:105070006E673A2031357078222069643D22617074
:105080005F7374796C65223E202020202020202030
:105090002020202020202020202020202020202010
:1050A0002020202020202020202020202020202000
:1050B00020202020202020202020202020202020F0
:1050C00020202020202020202020202020202020E0
:1050D00020202020202020202020202020202020D0
:1050E00020202020202020202020202020202020C0
:1050F00020202020202020202020202020202020B0
:10510000202020202020202020202020202020209F
:10511000202020202020202020202020202020208F
:10512000202020202020202020202020202020207F
:105130002020202020202020202020202020200A85
:105140003C7374796C6520747970653D2274657860
:10515000742F637373222073636F7065643E202025
:10516000202020202020202020202020202020203F
:10517000202020202020202020202020202020202F
:10518000202020202020202020202020202020201F
:10519000202020202020202020202020202020200F
:1051A00020202020202020202020202020202020FF
:1051B00020202020202020202020202020202020EF
:1051C00020202020202020202020202020202020DF
:1051D00020202020202020202020202020202020CF
:1051E0002020200A2361705F7374796C65207464D9
:1051F000207B20746578742D616C69676E3A6C65EC
:1052000066743B20666F6E742D66616D696C793AC9
:105210002076657264616E612C617269616C3B20FD
:10522000636F6C6F723A20233036343037333B2053
:10523000666F6E742D73697A653A20312E30306551
:105240006D3B207D200A2361705F7374796C65204B
:10525000696E707574207B20626F726465723A208B
:1052600031707820736F6C69642023434343434358
:10527000433B20626F726465722D7261646975735D
:105280003A203570783B20636F6C6F723A2023367A
:1052900036363636363B20646973706C61793A2055
:1052A000696E6C696E652D626C6F636B3B20666F17
:1052B0006E742D73697A653A20312E3030656D3BFE
:1052C000202070616464696E673A203570783B20F5
:1052D0007D200A2361705F7374796C65207461624C
:1052E0006C652E63656E746572207B206D617267DC
:1052F000696E2D6C6566743A6175746F3B206D61E3
:105300007267696E2D72696768743A6175746F3B74
:10531000207D200A2361705F7374796C65202E658F
:1053200072726F72207B20666F6E742D66616D697C
:105330006C793A2076657264616E612C6172696184
:105340006C3B20636F6C6F723A20234434313331ED
:10535000333B20666F6E742D73697A653A20312E67
:105360003030656D3B207D200A3C2F7374796C656D
:105370003E200A3C2F686561643E20200A200A3CDA
:10538000626F64793E2020202020202020202020D1
:10539000202020202020202020202020202020200D
:1053A00020202020202020202020202020202020FD
:1053B00020202020202020202020202020202020ED
:1053C00020202020202020202020202020202020DD
:1053D00020202020202020202020202020202020CD
:1053E00020202020202020200A200A3C6831206133
:1053F0006C69676E3D2263656E746572223E3C6621
:105400006F6E7420636F6C6F723D222330303030CA
:105410003030223E3C666F6E7420636F6C6F723D5D
:105420002223303030303030223E2850445529205D
:10543000506F7765722064697374726962757469FC
:105440006F6E20756E6974203C2F666F6E743E3CE3
:105450002F666F6E743E3C2F68313E200A2020205C
:10546000202020202020202020202020202020203C
:10547000202020202020202020202020202020202C
:10548000202020202020202020202020202020201C
:1054900020200A2020202020202020202020202022
:1054A00020202020203C7461626C6520616C69675B
:1054B0006E3D2263656E74657222206267636F6C55
:1054C0006F723D22233030464630302220626F72A8
:1054D0006465723D2232222063656C6C7061646485
:1054E000696E673D2236222063656C6C7370616360
:1054F000696E673D2231222077696474683D617569
:10550000746F3E200A2020202020202020202020F0
:1055100020202020202020200A20202020202020A1
:1055200020202020202020202020203C74626F6436
:10553000793E2020202020202020202020202020F4
:10554000202020202020202020202020202020205B
:1055500020202020202020202020200A2020202061
:10556000202020202020202020202020202020203B
:1055700020202020202020200A2020202020202041
:1055800020202020202020202020203C74723E203B
:10559000202020202020202020202020202020200B
:1055A00020202020202020202020202020202020FB
:1055B0002020202020202020200A20202020202001
:1055C0002020202020202020202020203C74683E05
:1055D0003C7020616C69676E3D2263656E74657214
:1055E000223E4C6563747572617320506963202894
:1055F0002031203D204F4E202920282030203D20E2
:105600004F4646293C2F703E3C2F74683E20202098
:10561000202020202020202020202020202020208A
:105620000A20202020202020202020202020202090
:105630002020203C74683E3C7020616C69676E3DA0
:105640002263656E746572223E4F4E2F4F46462090
:1056500052656C617920436F72726573706F6E640E
:1056600069656E7465202850524543415543494F42
:105670004E293C2F703E3C2F74683E200A2020208B
:105680002020202020202020202020202020203CFE
:1056900074683E3C7020616C69676E3D2263656E84
:1056A000746572223E5245424F4F542052656C61E0
:1056B00079203C2F703E3C2F74683E200A20202029
:1056C00020202020202020202020202020202020DA
:1056D0000A202020202020202020202020202020E0
:1056E0002020203C2F74723E200A202020202020E1
:1056F00020202020202020202020202020202020AA
:105700002020202020202020202020202020202099
:105710002020202020202020202020202020202089
:1057200020202020200A202020202020202020208F
:1057300020202020202020203C74723E2020202089
:105740002020202020202020202020202020202059
:105750002020202020202020202020202020202049
:105760002020202020202020202020202020202039
:105770002020202020202020202020202020202029
:105780002020202020202020202020202020202019
:1057900020200A202020202020202020202020201F
:1057A00020202020203C74643E3C623E436F727295
:1057B00069656E74653A203C2F623E25303C2F743B
:1057C000643E200A2020202020202020202020208D
:1057D0002020202020203C464F524D204D4554484B
:1057E0004F443D504F53543E3C74643E50756C736F
:1057F0006520204F4E2F4F4646203D20496E746550
:1058000072727570746F72204675656E74652031A2
:10581000203C696E70757420747970653D227375D3
:10582000626D697422206E616D653D22626F746FD6
:105830006E31222076616C75653D2252656C61790E
:105840002031223E3C2F74643E3C2F464F524D3E49
:10585000200A20202020202020202020202020205E
:10586000202020203C464F524D204D4554484F4467
:105870003D504F53543E3C74643E5265626F6F74AA
:10588000203D204675656E74652031203C696E7040
:10589000757420747970653D227375626D69742228
:1058A000206E616D653D227265626F6F74312220DA
:1058B00076616C75653D225265626F6F742052652A
:1058C0006C61792031223E3C2F74643E3C2F464F60
:1058D000524D3E200A202020202020202020202061
:1058E000202020202020203C2F74723E20202020C9
:1058F00020202020202020202020202020202020A8
:105900002020202020202020202020202020202097
:105910002020202020202020202020202020202087
:10592000202020202020200A20202020202020208D
:105930002020202020202020202020202020202067
:105940002020202020202020202020202020202057
:105950002020202020202020202020202020202047
:105960002020202020202020202020202020202037
:105970002020202020202020202020202020202027
:105980002020202020202020202020202020202017
:105990002020202020202020202020202020202007
:1059A00020202020202020202020202020202020F7
:1059B00020202020202020202020202020202020E7
:1059C00020202020202020202020202020200A20ED
:1059D00020202020202020202020202020202020C7
:1059E000203C74723E200A202020202020202020ED
:1059F0002020202020202020203C74643E3C623E59
:105A000045737461646F3A203C2F623E25313C2F10
:105A100074643E20202020202020202020202020D0
:105A20002020202020202020202020202020202076
:105A30002020202020202020202020202020202066
:105A40002020202020202020202020202020202056
:105A50002020202020202020202020202020202046
:105A6000202020202020202020200A20202020204C
:105A7000202020202020202020202020203C464FB5
:105A8000524D204D4554484F443D504F53543E3C99
:105A900074643E50756C736520204F4E2F4F464600
:105AA000203D20496E746572727570746F72204665
:105AB00075656E74652032203C696E707574207453
:105AC0007970653D227375626D697422206E616D17
:105AD000653D22626F746F6E32222076616C75654F
